{
  "address": "0x08D3aA2D1822262EBb2B52b2E7FaFd4d747f5590",
  "abi": [
    {
      "inputs": [
        {
          "internalType": "bytes32",
          "name": "_salt",
          "type": "bytes32"
        }
      ],
      "stateMutability": "nonpayable",
      "type": "constructor"
    },
    {
      "inputs": [],
      "name": "AlreadyInitialized",
      "type": "error"
    },
    {
      "inputs": [],
      "name": "ECDSAInvalidSignature",
      "type": "error"
    },
    {
      "inputs": [
        {
          "internalType": "uint256",
          "name": "length",
          "type": "uint256"
        }
      ],
      "name": "ECDSAInvalidSignatureLength",
      "type": "error"
    },
    {
      "inputs": [
        {
          "internalType": "bytes32",
          "name": "s",
          "type": "bytes32"
        }
      ],
      "name": "ECDSAInvalidSignatureS",
      "type": "error"
    },
    {
      "inputs": [],
      "name": "InvalidNonce",
      "type": "error"
    },
    {
      "inputs": [],
      "name": "InvalidShortString",
      "type": "error"
    },
    {
      "inputs": [],
      "name": "NotAddressOwner",
      "type": "error"
    },
    {
      "inputs": [
        {
          "internalType": "address",
          "name": "owner",
          "type": "address"
        }
      ],
      "name": "OwnableInvalidOwner",
      "type": "error"
    },
    {
      "inputs": [
        {
          "internalType": "address",
          "name": "account",
          "type": "address"
        }
      ],
      "name": "OwnableUnauthorizedAccount",
      "type": "error"
    },
    {
      "inputs": [],
      "name": "ReentrancyGuardReentrantCall",
      "type": "error"
    },
    {
      "inputs": [],
      "name": "RegistrationsClosed",
      "type": "error"
    },
    {
      "inputs": [
        {
          "internalType": "string",
          "name": "str",
          "type": "string"
        }
      ],
      "name": "StringTooLong",
      "type": "error"
    },
    {
      "inputs": [],
      "name": "UnauthorizedAccess",
      "type": "error"
    },
    {
      "inputs": [],
      "name": "UserAlreadyRegistered",
      "type": "error"
    },
    {
      "inputs": [],
      "name": "UserAlreadyRegisteredWithEmail",
      "type": "error"
    },
    {
      "inputs": [],
      "name": "UserAlreadyRegisteredWithPhone",
      "type": "error"
    },
    {
      "inputs": [],
      "name": "UserNotInitialized",
      "type": "error"
    },
    {
      "anonymous": false,
      "inputs": [],
      "name": "EIP712DomainChanged",
      "type": "event"
    },
    {
      "anonymous": false,
      "inputs": [
        {
          "indexed": true,
          "internalType": "address",
          "name": "hackerAddress",
          "type": "address"
        }
      ],
      "name": "HackerDataEdited",
      "type": "event"
    },
    {
      "anonymous": false,
      "inputs": [
        {
          "indexed": true,
          "internalType": "address",
          "name": "hackerAddress",
          "type": "address"
        }
      ],
      "name": "HackerInitialized",
      "type": "event"
    },
    {
      "anonymous": false,
      "inputs": [
        {
          "indexed": true,
          "internalType": "address",
          "name": "hackerAddress",
          "type": "address"
        },
        {
          "indexed": false,
          "internalType": "address",
          "name": "class",
          "type": "address"
        }
      ],
      "name": "HackerRegistered",
      "type": "event"
    },
    {
      "anonymous": false,
      "inputs": [
        {
          "indexed": true,
          "internalType": "address",
          "name": "previousOwner",
          "type": "address"
        },
        {
          "indexed": true,
          "internalType": "address",
          "name": "newOwner",
          "type": "address"
        }
      ],
      "name": "OwnershipTransferred",
      "type": "event"
    },
    {
      "anonymous": false,
      "inputs": [
        {
          "indexed": false,
          "internalType": "bool",
          "name": "isOpen",
          "type": "bool"
        }
      ],
      "name": "RegistrationStatusChanged",
      "type": "event"
    },
    {
      "inputs": [],
      "name": "MAX_LOCKS",
      "outputs": [
        {
          "internalType": "uint256",
          "name": "",
          "type": "uint256"
        }
      ],
      "stateMutability": "view",
      "type": "function"
    },
    {
      "inputs": [],
      "name": "areRegistrationsOpen",
      "outputs": [
        {
          "internalType": "bool",
          "name": "",
          "type": "bool"
        }
      ],
      "stateMutability": "view",
      "type": "function"
    },
    {
      "inputs": [
        {
          "internalType": "string",
          "name": "_name",
          "type": "string"
        },
        {
          "internalType": "string",
          "name": "_email",
          "type": "string"
        },
        {
          "internalType": "uint256",
          "name": "_number",
          "type": "uint256"
        }
      ],
      "name": "editHackerData",
      "outputs": [],
      "stateMutability": "nonpayable",
      "type": "function"
    },
    {
      "inputs": [],
      "name": "eip712Domain",
      "outputs": [
        {
          "internalType": "bytes1",
          "name": "fields",
          "type": "bytes1"
        },
        {
          "internalType": "string",
          "name": "name",
          "type": "string"
        },
        {
          "internalType": "string",
          "name": "version",
          "type": "string"
        },
        {
          "internalType": "uint256",
          "name": "chainId",
          "type": "uint256"
        },
        {
          "internalType": "address",
          "name": "verifyingContract",
          "type": "address"
        },
        {
          "internalType": "bytes32",
          "name": "salt",
          "type": "bytes32"
        },
        {
          "internalType": "uint256[]",
          "name": "extensions",
          "type": "uint256[]"
        }
      ],
      "stateMutability": "view",
      "type": "function"
    },
    {
      "inputs": [],
      "name": "getAllHackers",
      "outputs": [
        {
          "components": [
            {
              "internalType": "address",
              "name": "hackerAddress",
              "type": "address"
            },
            {
              "internalType": "string",
              "name": "name",
              "type": "string"
            },
            {
              "internalType": "bytes32",
              "name": "email",
              "type": "bytes32"
            },
            {
              "internalType": "bytes32",
              "name": "number",
              "type": "bytes32"
            },
            {
              "internalType": "address",
              "name": "class",
              "type": "address"
            },
            {
              "internalType": "bool",
              "name": "initialized",
              "type": "bool"
            }
          ],
          "internalType": "struct HackerData[]",
          "name": "",
          "type": "tuple[]"
        }
      ],
      "stateMutability": "view",
      "type": "function"
    },
    {
      "inputs": [],
      "name": "getAreRegistrationsOpen",
      "outputs": [
        {
          "internalType": "bool",
          "name": "",
          "type": "bool"
        }
      ],
      "stateMutability": "view",
      "type": "function"
    },
    {
      "inputs": [
        {
          "internalType": "string",
          "name": "_email",
          "type": "string"
        }
      ],
      "name": "getHackerByEmail",
      "outputs": [
        {
          "components": [
            {
              "internalType": "address",
              "name": "hackerAddress",
              "type": "address"
            },
            {
              "internalType": "string",
              "name": "name",
              "type": "string"
            },
            {
              "internalType": "bytes32",
              "name": "email",
              "type": "bytes32"
            },
            {
              "internalType": "bytes32",
              "name": "number",
              "type": "bytes32"
            },
            {
              "internalType": "address",
              "name": "class",
              "type": "address"
            },
            {
              "internalType": "bool",
              "name": "initialized",
              "type": "bool"
            }
          ],
          "internalType": "struct HackerData",
          "name": "",
          "type": "tuple"
        }
      ],
      "stateMutability": "view",
      "type": "function"
    },
    {
      "inputs": [
        {
          "internalType": "uint256",
          "name": "_number",
          "type": "uint256"
        }
      ],
      "name": "getHackerByPhone",
      "outputs": [
        {
          "components": [
            {
              "internalType": "address",
              "name": "hackerAddress",
              "type": "address"
            },
            {
              "internalType": "string",
              "name": "name",
              "type": "string"
            },
            {
              "internalType": "bytes32",
              "name": "email",
              "type": "bytes32"
            },
            {
              "internalType": "bytes32",
              "name": "number",
              "type": "bytes32"
            },
            {
              "internalType": "address",
              "name": "class",
              "type": "address"
            },
            {
              "internalType": "bool",
              "name": "initialized",
              "type": "bool"
            }
          ],
          "internalType": "struct HackerData",
          "name": "",
          "type": "tuple"
        }
      ],
      "stateMutability": "view",
      "type": "function"
    },
    {
      "inputs": [
        {
          "internalType": "address",
          "name": "userAddress",
          "type": "address"
        }
      ],
      "name": "getHackerDataByAddress",
      "outputs": [
        {
          "components": [
            {
              "internalType": "address",
              "name": "hackerAddress",
              "type": "address"
            },
            {
              "internalType": "string",
              "name": "name",
              "type": "string"
            },
            {
              "internalType": "bytes32",
              "name": "email",
              "type": "bytes32"
            },
            {
              "internalType": "bytes32",
              "name": "number",
              "type": "bytes32"
            },
            {
              "internalType": "address",
              "name": "class",
              "type": "address"
            },
            {
              "internalType": "bool",
              "name": "initialized",
              "type": "bool"
            }
          ],
          "internalType": "struct HackerData",
          "name": "user",
          "type": "tuple"
        }
      ],
      "stateMutability": "view",
      "type": "function"
    },
    {
      "inputs": [
        {
          "internalType": "address",
          "name": "_hackerAddress",
          "type": "address"
        }
      ],
      "name": "getHackerNonce",
      "outputs": [
        {
          "internalType": "uint256",
          "name": "",
          "type": "uint256"
        }
      ],
      "stateMutability": "view",
      "type": "function"
    },
    {
      "inputs": [
        {
          "internalType": "address",
          "name": "_ownerAddress",
          "type": "address"
        }
      ],
      "name": "getSalt",
      "outputs": [
        {
          "internalType": "bytes32",
          "name": "",
          "type": "bytes32"
        }
      ],
      "stateMutability": "view",
      "type": "function"
    },
    {
      "inputs": [
        {
          "internalType": "bytes",
          "name": "_signature",
          "type": "bytes"
        }
      ],
      "name": "initializeHackerProfile",
      "outputs": [],
      "stateMutability": "nonpayable",
      "type": "function"
    },
    {
      "inputs": [
        {
          "internalType": "address",
          "name": "_hackerAddress",
          "type": "address"
        }
      ],
      "name": "isHackerInitialized",
      "outputs": [
        {
          "internalType": "bool",
          "name": "",
          "type": "bool"
        }
      ],
      "stateMutability": "view",
      "type": "function"
    },
    {
      "inputs": [
        {
          "internalType": "uint256",
          "name": "_number",
          "type": "uint256"
        }
      ],
      "name": "isHackerRegistered",
      "outputs": [
        {
          "internalType": "bool",
          "name": "",
          "type": "bool"
        }
      ],
      "stateMutability": "view",
      "type": "function"
    },
    {
      "inputs": [],
      "name": "owner",
      "outputs": [
        {
          "internalType": "address",
          "name": "",
          "type": "address"
        }
      ],
      "stateMutability": "view",
      "type": "function"
    },
    {
      "inputs": [
        {
          "internalType": "address",
          "name": "_hackerAddress",
          "type": "address"
        },
        {
          "internalType": "string",
          "name": "_name",
          "type": "string"
        },
        {
          "internalType": "string",
          "name": "_email",
          "type": "string"
        },
        {
          "internalType": "uint256",
          "name": "_number",
          "type": "uint256"
        },
        {
          "internalType": "address",
          "name": "_lockAddress",
          "type": "address"
        }
      ],
      "name": "registerHacker",
      "outputs": [],
      "stateMutability": "nonpayable",
      "type": "function"
    },
    {
      "inputs": [],
      "name": "renounceOwnership",
      "outputs": [],
      "stateMutability": "nonpayable",
      "type": "function"
    },
    {
      "inputs": [
        {
          "internalType": "bool",
          "name": "_areRegistrationsOpen",
          "type": "bool"
        }
      ],
      "name": "setRegistrationsStatus",
      "outputs": [],
      "stateMutability": "nonpayable",
      "type": "function"
    },
    {
      "inputs": [
        {
          "internalType": "bytes32",
          "name": "_salt",
          "type": "bytes32"
        }
      ],
      "name": "setSalt",
      "outputs": [],
      "stateMutability": "nonpayable",
      "type": "function"
    },
    {
      "inputs": [
        {
          "internalType": "address",
          "name": "newOwner",
          "type": "address"
        }
      ],
      "name": "transferOwnership",
      "outputs": [],
      "stateMutability": "nonpayable",
      "type": "function"
    },
    {
      "stateMutability": "payable",
      "type": "receive"
    }
  ],
  "transactionHash": "0x63ac183b77128c692b7ca77ea3a16f35b38513f6cfb32fc192f9e439eb723cfd",
  "args": [
    "0x7c92af12a35ac62ec90ca00d384778d91557ed1d95b73a05a77d66c5b0a1f31e"
  ],
  "numDeployments": 1,
  "solcInputHash": "7b3cf3f46b14f292eb926137a8d1d851",
  "bytecode": "0x6101606040526006805460ff191690553480156200001c57600080fd5b50604051620020e0380380620020e08339810160408190526200003f9162000243565b604080518082018252601281527122aa24293bb0b73230a430b1b5b0ba3437b760711b602080830191909152825180840190935260018352603160f81b90830152903380620000a957604051631e4fbdf760e01b8152600060048201526024015b60405180910390fd5b620000b48162000177565b5060018055620000c6826002620001c7565b61012052620000d7816003620001c7565b61014052815160208084019190912060e052815190820120610100524660a0526200016560e05161010051604080517f8b73c3c69bb8fe3d512ecc4cf759cc79239f7b179b0ffacaa9a75d522b39400f60208201529081019290925260608201524660808201523060a082015260009060c00160405160208183030381529060405280519060200120905090565b60805250503060c05260055562000443565b600080546001600160a01b038381166001600160a01b0319831681178455604051919092169283917f8be0079c531659141344cd1fd0a4f28419497f9722a3daafe3b4186f6b6457e09190a35050565b6000602083511015620001e757620001df8362000200565b9050620001fa565b81620001f4848262000302565b5060ff90505b92915050565b600080829050601f815111156200022e578260405163305a27a960e01b8152600401620000a09190620003ce565b80516200023b826200041e565b179392505050565b6000602082840312156200025657600080fd5b5051919050565b634e487b7160e01b600052604160045260246000fd5b600181811c908216806200028857607f821691505b602082108103620002a957634e487b7160e01b600052602260045260246000fd5b50919050565b601f821115620002fd57600081815260208120601f850160051c81016020861015620002d85750805b601f850160051c820191505b81811015620002f957828155600101620002e4565b5050505b505050565b81516001600160401b038111156200031e576200031e6200025d565b62000336816200032f845462000273565b84620002af565b602080601f8311600181146200036e5760008415620003555750858301515b600019600386901b1c1916600185901b178555620002f9565b600085815260208120601f198616915b828110156200039f578886015182559484019460019091019084016200037e565b5085821015620003be5787850151600019600388901b60f8161c191681555b5050505050600190811b01905550565b600060208083528351808285015260005b81811015620003fd57858101830151858201604001528201620003df565b506000604082860101526040601f19601f8301168501019250505092915050565b80516020808301519190811015620002a95760001960209190910360031b1b16919050565b60805160a05160c05160e051610100516101205161014051611c426200049e6000396000611199015260006111670152600061129901526000611271015260006111cc015260006111f6015260006112200152611c426000f3fe6080604052600436106101225760003560e01c80636826a830116100a0578063bb29ccc611610064578063bb29ccc614610353578063cb419eec14610373578063d3229343146103b6578063d77832ca146103cb578063f2fde38b146103eb57600080fd5b80636826a830146102a957806369254d40146102d6578063715018a6146102ee57806384b0196e146103035780638da5cb5b1461032b57600080fd5b80631fa4dc52116100e75780631fa4dc52146101eb5780633de2c4831461020557806351c732b01461024957806359709c4514610269578063611ef44f1461028957600080fd5b8062a170c91461012e578063031a66b61461015057806309fdf02e1461017b578063104bec291461019b5780631e9f45a5146101cb57600080fd5b3661012957005b600080fd5b34801561013a57600080fd5b5061014e61014936600461160b565b61040b565b005b34801561015c57600080fd5b5061016561045a565b60405161017291906116db565b60405180910390f35b34801561018757600080fd5b5061014e6101963660046117e9565b6105a0565b3480156101a757600080fd5b506101bb6101b6366004611856565b61073a565b6040519015158152602001610172565b3480156101d757600080fd5b5061014e6101e636600461186f565b610770565b3480156101f757600080fd5b506006546101bb9060ff1681565b34801561021157600080fd5b5061023b6102203660046118dc565b6001600160a01b031660009081526007602052604090205490565b604051908152602001610172565b34801561025557600080fd5b5061014e6102643660046118f7565b610934565b34801561027557600080fd5b5061023b6102843660046118dc565b610c90565b34801561029557600080fd5b5061014e6102a4366004611856565b610cc7565b3480156102b557600080fd5b506102c96102c4366004611986565b610cd4565b60405161017291906119bb565b3480156102e257600080fd5b5060065460ff166101bb565b3480156102fa57600080fd5b5061014e610df9565b34801561030f57600080fd5b50610318610e0d565b60405161017297969594939291906119ce565b34801561033757600080fd5b506000546040516001600160a01b039091168152602001610172565b34801561035f57600080fd5b506102c961036e3660046118dc565b610e53565b34801561037f57600080fd5b506101bb61038e3660046118dc565b6001600160a01b0316600090815260096020526040902060040154600160a01b900460ff1690565b3480156103c257600080fd5b5061023b600681565b3480156103d757600080fd5b506102c96103e6366004611856565b610f60565b3480156103f757600080fd5b5061014e6104063660046118dc565b610fc2565b610413611005565b6006805460ff19168215159081179091556040519081527f1a30f630d0950ddfc90d43ec4e405fd012ddb4ba669dd2bd5e95439631c4221f9060200160405180910390a150565b6060600c805480602002602001604051908101604052809291908181526020016000905b828210156105975760008481526020908190206040805160c081019091526005850290910180546001600160a01b0316825260018101805492939192918401916104c790611a64565b80601f01602080910402602001604051908101604052809291908181526020018280546104f390611a64565b80156105405780601f1061051557610100808354040283529160200191610540565b820191906000526020600020905b81548152906001019060200180831161052357829003601f168201915b50505091835250506002820154602080830191909152600383015460408301526004909201546001600160a01b0381166060830152600160a01b900460ff161515608090910152908252600192909201910161047e565b50505050905090565b3360009081526009602052604090206004810154600160a01b900460ff166105db57604051630a0e3b7560e21b815260040160405180910390fd5b60006105e683611032565b6000818152600b60205260409020549091506001600160a01b03161580159061062657506000818152600b60205260409020546001600160a01b03163314155b1561064457604051630b78cb0160e31b815260040160405180910390fd5b600061064f8561106f565b9050600061065d3387611086565b905080801561068357506000828152600a60205260409020546001600160a01b03163314155b156106a15760405163652725eb60e11b815260040160405180910390fd5b828460030154146106d2576000838152600b6020526040902080546001600160a01b03191633179055600384018390555b600184016106e08882611aed565b50600284018290556000828152600a602052604080822080546001600160a01b03191633908117909155905190917f899e426a1145f5a7442566cb6f469b4a55da6844560a30d29ef1ed98e4387cac91a250505050505050565b60008061074683611032565b600081815260086020526040902060010180549192509061076690611a64565b1515949350505050565b3360009081526009602052604090206004810154600160a01b900460ff16156107ab5760405162dc149f60e41b815260040160405180910390fd5b33600090815260076020526040902054156107d957604051633ab3447f60e11b815260040160405180910390fd5b600454604080517f8436e0b04c93157f90a55acb9c14dc3f4dfb2f28f2f94c63c091f411286818a1602082015233918101919091526060810191909152600090608001604051602081830303815290604052805190602001209050600061083f826110b9565b9050600061084d82866110e6565b90506001600160a01b0381163314610878576040516302e257b760e61b815260040160405180910390fd5b6004805433600090815260076020526040812082905590919061089a83611bad565b909155505083546001600160a01b031990811633908117865560048601805460ff60a01b1916600160a01b179055600286015460038701546000828152600a602090815260408083208054881687179055838352600b90915280822080549096168517909555935191939092917f03a11e363798d177d3b70e778154773018cf4669a4ecf1fdbacd173248bb464e9190a250505050505050565b60065460ff1661095757604051632596f79960e01b815260040160405180910390fd5b6001600160a01b03858116600090815260096020526040902054161561099057604051634f2532fb60e11b815260040160405180910390fd5b600061099b83611032565b905060006109a88561106f565b6000838152600b60205260409020549091506001600160a01b0316156109e157604051630b78cb0160e31b815260040160405180910390fd5b6109eb8786611086565b806109fb57506109fb3386611086565b15610a195760405163652725eb60e11b815260040160405180910390fd5b6040805160c0810182523381526020808201898152828401859052606083018690526001600160a01b038781166080850152600060a08501819052878152600890935293909120825181546001600160a01b031916941693909317835551909182916001820190610a8a9082611aed565b5060408281015160028301556060830151600383015560808301516004909201805460a0909401511515600160a01b026001600160a81b03199094166001600160a01b039384161793909317909255336000908152600960209081529290208351815492166001600160a01b031992909216919091178155908201518291906001820190610b189082611aed565b50604082015160028201556060820151600382015560808201516004909101805460a0909301511515600160a01b026001600160a81b03199093166001600160a01b039283161792909217909155600c8054600181018255600091909152825160059091027fdf6966c971051c3d54ec59162606531493a51404a002842f56009d7e5cf4a8c781018054929093166001600160a01b03199290921691909117825560208301518392917fdf6966c971051c3d54ec59162606531493a51404a002842f56009d7e5cf4a8c80190610bee9082611aed565b5060408281015160028301556060830151600383015560808301516004909201805460a0909401511515600160a01b026001600160a81b03199094166001600160a01b03909316929092179290921790555133907f2ee9bb10985d2baeb1f5ee83dc4b9a6a8bba35763f716ef99bb4b7ea21011d5c90610c7e9087906001600160a01b0391909116815260200190565b60405180910390a25050505050505050565b600080546001600160a01b03838116911614610cbf57604051631a27eac360e11b815260040160405180910390fd5b505060055490565b610ccf611005565b600555565b610cdc6115d5565b6000610ce78361106f565b6000818152600a60209081526040808320546001600160a01b0390811684526009835292819020815160c0810190925280549093168152600183018054949550909391840191610d3690611a64565b80601f0160208091040260200160405190810160405280929190818152602001828054610d6290611a64565b8015610daf5780601f10610d8457610100808354040283529160200191610daf565b820191906000526020600020905b815481529060010190602001808311610d9257829003601f168201915b505050918352505060028201546020820152600382015460408201526004909101546001600160a01b0381166060830152600160a01b900460ff1615156080909101529392505050565b610e01611005565b610e0b6000611110565b565b600060608060008060006060610e21611160565b610e29611192565b60408051600080825260208201909252600f60f81b9b939a50919850469750309650945092509050565b610e5b6115d5565b6001600160a01b03808316600090815260096020908152604091829020825160c081019093528054909316825260018301805492939291840191610e9e90611a64565b80601f0160208091040260200160405190810160405280929190818152602001828054610eca90611a64565b8015610f175780601f10610eec57610100808354040283529160200191610f17565b820191906000526020600020905b815481529060010190602001808311610efa57829003601f168201915b505050918352505060028201546020820152600382015460408201526004909101546001600160a01b0381166060830152600160a01b900460ff16151560809091015292915050565b610f686115d5565b6000610f7383611032565b6000818152600b60209081526040808320546001600160a01b0390811684526009835292819020815160c0810190925280549093168152600183018054949550909391840191610d3690611a64565b610fca611005565b6001600160a01b038116610ff957604051631e4fbdf760e01b8152600060048201526024015b60405180910390fd5b61100281611110565b50565b6000546001600160a01b03163314610e0b5760405163118cdaa760e01b8152336004820152602401610ff0565b600081600554604051602001611052929190918252602082015260400190565b604051602081830303815290604052805190602001209050919050565b600081600554604051602001611052929190611bd4565b6000806110928361106f565b6000908152600a60205260409020546001600160a01b038581169116149150505b92915050565b60006110b36110c66111bf565b8360405161190160f01b8152600281019290925260228201526042902090565b6000806000806110f686866112ea565b9250925092506111068282611337565b5090949350505050565b600080546001600160a01b038381166001600160a01b0319831681178455604051919092169283917f8be0079c531659141344cd1fd0a4f28419497f9722a3daafe3b4186f6b6457e09190a35050565b606061118d7f000000000000000000000000000000000000000000000000000000000000000060026113f4565b905090565b606061118d7f000000000000000000000000000000000000000000000000000000000000000060036113f4565b6000306001600160a01b037f00000000000000000000000000000000000000000000000000000000000000001614801561121857507f000000000000000000000000000000000000000000000000000000000000000046145b1561124257507f000000000000000000000000000000000000000000000000000000000000000090565b61118d604080517f8b73c3c69bb8fe3d512ecc4cf759cc79239f7b179b0ffacaa9a75d522b39400f60208201527f0000000000000000000000000000000000000000000000000000000000000000918101919091527f000000000000000000000000000000000000000000000000000000000000000060608201524660808201523060a082015260009060c00160405160208183030381529060405280519060200120905090565b600080600083516041036113245760208401516040850151606086015160001a6113168882858561149f565b955095509550505050611330565b50508151600091506002905b9250925092565b600082600381111561134b5761134b611bf6565b03611354575050565b600182600381111561136857611368611bf6565b036113865760405163f645eedf60e01b815260040160405180910390fd5b600282600381111561139a5761139a611bf6565b036113bb5760405163fce698f760e01b815260048101829052602401610ff0565b60038260038111156113cf576113cf611bf6565b036113f0576040516335e2f38360e21b815260048101829052602401610ff0565b5050565b606060ff831461140e576114078361156e565b90506110b3565b81805461141a90611a64565b80601f016020809104026020016040519081016040528092919081815260200182805461144690611a64565b80156114935780601f1061146857610100808354040283529160200191611493565b820191906000526020600020905b81548152906001019060200180831161147657829003601f168201915b505050505090506110b3565b600080807f7fffffffffffffffffffffffffffffff5d576e7357a4501ddfe92f46681b20a08411156114da5750600091506003905082611564565b604080516000808252602082018084528a905260ff891692820192909252606081018790526080810186905260019060a0016020604051602081039080840390855afa15801561152e573d6000803e3d6000fd5b5050604051601f1901519150506001600160a01b03811661155a57506000925060019150829050611564565b9250600091508190505b9450945094915050565b6060600061157b836115ad565b604080516020808252818301909252919250600091906020820181803683375050509182525060208101929092525090565b600060ff8216601f8111156110b357604051632cd44ac360e21b815260040160405180910390fd5b6040805160c08101825260008082526060602083018190529282018190529181018290526080810182905260a081019190915290565b60006020828403121561161d57600080fd5b8135801515811461162d57600080fd5b9392505050565b6000815180845260005b8181101561165a5760208185018101518683018201520161163e565b506000602082860101526020601f19601f83011685010191505092915050565b600060018060a01b03808351168452602083015160c060208601526116a260c0860182611634565b9050604084015160408601526060840151606086015281608085015116608086015260a0840151151560a0860152809250505092915050565b6000602080830181845280855180835260408601915060408160051b870101925083870160005b8281101561173057603f1988860301845261171e85835161167a565b94509285019290850190600101611702565b5092979650505050505050565b634e487b7160e01b600052604160045260246000fd5b600067ffffffffffffffff8084111561176e5761176e61173d565b604051601f8501601f19908116603f011681019082821181831017156117965761179661173d565b816040528093508581528686860111156117af57600080fd5b858560208301376000602087830101525050509392505050565b600082601f8301126117da57600080fd5b61162d83833560208501611753565b6000806000606084860312156117fe57600080fd5b833567ffffffffffffffff8082111561181657600080fd5b611822878388016117c9565b9450602086013591508082111561183857600080fd5b50611845868287016117c9565b925050604084013590509250925092565b60006020828403121561186857600080fd5b5035919050565b60006020828403121561188157600080fd5b813567ffffffffffffffff81111561189857600080fd5b8201601f810184136118a957600080fd5b6118b884823560208401611753565b949350505050565b80356001600160a01b03811681146118d757600080fd5b919050565b6000602082840312156118ee57600080fd5b61162d826118c0565b600080600080600060a0868803121561190f57600080fd5b611918866118c0565b9450602086013567ffffffffffffffff8082111561193557600080fd5b61194189838a016117c9565b9550604088013591508082111561195757600080fd5b50611964888289016117c9565b9350506060860135915061197a608087016118c0565b90509295509295909350565b60006020828403121561199857600080fd5b813567ffffffffffffffff8111156119af57600080fd5b6118b8848285016117c9565b60208152600061162d602083018461167a565b60ff60f81b881681526000602060e0818401526119ee60e084018a611634565b8381036040850152611a00818a611634565b606085018990526001600160a01b038816608086015260a0850187905284810360c0860152855180825283870192509083019060005b81811015611a5257835183529284019291840191600101611a36565b50909c9b505050505050505050505050565b600181811c90821680611a7857607f821691505b602082108103611a9857634e487b7160e01b600052602260045260246000fd5b50919050565b601f821115611ae857600081815260208120601f850160051c81016020861015611ac55750805b601f850160051c820191505b81811015611ae457828155600101611ad1565b5050505b505050565b815167ffffffffffffffff811115611b0757611b0761173d565b611b1b81611b158454611a64565b84611a9e565b602080601f831160018114611b505760008415611b385750858301515b600019600386901b1c1916600185901b178555611ae4565b600085815260208120601f198616915b82811015611b7f57888601518255948401946001909101908401611b60565b5085821015611b9d5787850151600019600388901b60f8161c191681555b5050505050600190811b01905550565b600060018201611bcd57634e487b7160e01b600052601160045260246000fd5b5060010190565b604081526000611be76040830185611634565b90508260208301529392505050565b634e487b7160e01b600052602160045260246000fdfea26469706673582212205722b449702b47dc3e5886f21d87e0795b2922b5f49b9f331fb434c9600dd22464736f6c63430008140033",
  "devdoc": {
    "errors": {
      "ECDSAInvalidSignature()": [
        {
          "details": "The signature derives the `address(0)`."
        }
      ],
      "ECDSAInvalidSignatureLength(uint256)": [
        {
          "details": "The signature has an invalid length."
        }
      ],
      "ECDSAInvalidSignatureS(bytes32)": [
        {
          "details": "The signature has an S value that is in the upper half order."
        }
      ],
      "OwnableInvalidOwner(address)": [
        {
          "details": "The owner is not a valid owner account. (eg. `address(0)`)"
        }
      ],
      "OwnableUnauthorizedAccount(address)": [
        {
          "details": "The caller account is not authorized to perform an operation."
        }
      ],
      "ReentrancyGuardReentrantCall()": [
        {
          "details": "Unauthorized reentrant call."
        }
      ]
    },
    "events": {
      "EIP712DomainChanged()": {
        "details": "MAY be emitted to signal that the domain could have changed."
      }
    },
    "kind": "dev",
    "methods": {
      "editHackerData(string,string,uint256)": {
        "params": {
          "_email": "The new email of the hacker.",
          "_name": "The new name of the hacker.",
          "_number": "The new phone number of the hacker."
        }
      },
      "eip712Domain()": {
        "details": "See {IERC-5267}."
      },
      "getAllHackers()": {
        "returns": {
          "_0": "An array of HackerData containing all registered hackers."
        }
      },
      "getAreRegistrationsOpen()": {
        "returns": {
          "_0": "True if registrations are open, false otherwise."
        }
      },
      "getHackerDataByAddress(address)": {
        "params": {
          "userAddress": "The address of the hacker."
        },
        "returns": {
          "user": "The HackerData associated with the address."
        }
      },
      "getHackerNonce(address)": {
        "params": {
          "_hackerAddress": "The address of the hacker."
        },
        "returns": {
          "_0": "The nonce associated with the hacker."
        }
      },
      "initializeHackerProfile(bytes)": {
        "details": "Can only be called once by each hacker.",
        "params": {
          "_signature": "The signature of the message.    c"
        }
      },
      "isHackerInitialized(address)": {
        "params": {
          "_hackerAddress": "The address of the hacker."
        },
        "returns": {
          "_0": "True if the hacker's profile is initialized, false otherwise."
        }
      },
      "isHackerRegistered(uint256)": {
        "params": {
          "_number": "The phone number to check."
        },
        "returns": {
          "_0": "True if the hacker is registered, false otherwise."
        }
      },
      "owner()": {
        "details": "Returns the address of the current owner."
      },
      "registerHacker(address,string,string,uint256,address)": {
        "params": {
          "_email": "The email of the hacker.",
          "_lockAddress": "The class address associated with the hacker.",
          "_name": "The name of the hacker.",
          "_number": "The phone number of the hacker."
        }
      },
      "renounceOwnership()": {
        "details": "Leaves the contract without owner. It will not be possible to call `onlyOwner` functions. Can only be called by the current owner. NOTE: Renouncing ownership will leave the contract without an owner, thereby disabling any functionality that is only available to the owner."
      },
      "setRegistrationsStatus(bool)": {
        "details": "Only callable by the contract owner."
      },
      "transferOwnership(address)": {
        "details": "Transfers ownership of the contract to a new account (`newOwner`). Can only be called by the current owner."
      }
    },
    "title": "ETHRwanda Hackathon Registry",
    "version": 1
  },
  "userdoc": {
    "events": {
      "HackerDataEdited(address)": {
        "notice": "Event emitted when a hacker's data is edited"
      },
      "HackerInitialized(address)": {
        "notice": "Event emitted when a hacker's profile is initialized"
      },
      "HackerRegistered(address,address)": {
        "notice": "Event emitted when a new hacker is registered"
      },
      "RegistrationStatusChanged(bool)": {
        "notice": "Event emitted when registration status is changed"
      }
    },
    "kind": "user",
    "methods": {
      "editHackerData(string,string,uint256)": {
        "notice": "Edits existing hacker data."
      },
      "getAllHackers()": {
        "notice": "Retrieves all registered hackers."
      },
      "getAreRegistrationsOpen()": {
        "notice": "Checks if registrations are open."
      },
      "getHackerDataByAddress(address)": {
        "notice": "Retrieves hacker data by address."
      },
      "getHackerNonce(address)": {
        "notice": "Retrieves the nonce for a specific hacker."
      },
      "initializeHackerProfile(bytes)": {
        "notice": "Initializes a hacker's profile using EIP-712 typed data."
      },
      "isHackerInitialized(address)": {
        "notice": "Checks if a hacker's profile is initialized."
      },
      "isHackerRegistered(uint256)": {
        "notice": "Checks if a hacker is registered by phone number."
      },
      "registerHacker(address,string,string,uint256,address)": {
        "notice": "Registers a new hacker."
      },
      "setRegistrationsStatus(bool)": {
        "notice": "Opens or closes registrations."
      }
    },
    "notice": "Manages the registration and data of hackers participating in the ETH Rwanda Hackathon.",
    "version": 1
  },
  "storageLayout": {
    "storage": [
      {
        "astId": 8,
        "contract": "contracts/HackerOnboard.sol:ETHRwandaHackathonOnboard",
        "label": "_owner",
        "offset": 0,
        "slot": "0",
        "type": "t_address"
      },
      {
        "astId": 213,
        "contract": "contracts/HackerOnboard.sol:ETHRwandaHackathonOnboard",
        "label": "_status",
        "offset": 0,
        "slot": "1",
        "type": "t_uint256"
      },
      {
        "astId": 1238,
        "contract": "contracts/HackerOnboard.sol:ETHRwandaHackathonOnboard",
        "label": "_nameFallback",
        "offset": 0,
        "slot": "2",
        "type": "t_string_storage"
      },
      {
        "astId": 1240,
        "contract": "contracts/HackerOnboard.sol:ETHRwandaHackathonOnboard",
        "label": "_versionFallback",
        "offset": 0,
        "slot": "3",
        "type": "t_string_storage"
      },
      {
        "astId": 2716,
        "contract": "contracts/HackerOnboard.sol:ETHRwandaHackathonOnboard",
        "label": "nonce",
        "offset": 0,
        "slot": "4",
        "type": "t_uint256"
      },
      {
        "astId": 2718,
        "contract": "contracts/HackerOnboard.sol:ETHRwandaHackathonOnboard",
        "label": "salt",
        "offset": 0,
        "slot": "5",
        "type": "t_bytes32"
      },
      {
        "astId": 2721,
        "contract": "contracts/HackerOnboard.sol:ETHRwandaHackathonOnboard",
        "label": "areRegistrationsOpen",
        "offset": 0,
        "slot": "6",
        "type": "t_bool"
      },
      {
        "astId": 2734,
        "contract": "contracts/HackerOnboard.sol:ETHRwandaHackathonOnboard",
        "label": "hackerNonceByAddress",
        "offset": 0,
        "slot": "7",
        "type": "t_mapping(t_address,t_uint256)"
      },
      {
        "astId": 2739,
        "contract": "contracts/HackerOnboard.sol:ETHRwandaHackathonOnboard",
        "label": "hackersByPhone",
        "offset": 0,
        "slot": "8",
        "type": "t_mapping(t_bytes32,t_struct(HackerData)2704_storage)"
      },
      {
        "astId": 2744,
        "contract": "contracts/HackerOnboard.sol:ETHRwandaHackathonOnboard",
        "label": "hackersByAddress",
        "offset": 0,
        "slot": "9",
        "type": "t_mapping(t_address,t_struct(HackerData)2704_storage)"
      },
      {
        "astId": 2748,
        "contract": "contracts/HackerOnboard.sol:ETHRwandaHackathonOnboard",
        "label": "hackerEmailHashes",
        "offset": 0,
        "slot": "10",
        "type": "t_mapping(t_bytes32,t_address)"
      },
      {
        "astId": 2752,
        "contract": "contracts/HackerOnboard.sol:ETHRwandaHackathonOnboard",
        "label": "hackerNumberHashes",
        "offset": 0,
        "slot": "11",
        "type": "t_mapping(t_bytes32,t_address)"
      },
      {
        "astId": 2756,
        "contract": "contracts/HackerOnboard.sol:ETHRwandaHackathonOnboard",
        "label": "users",
        "offset": 0,
        "slot": "12",
        "type": "t_array(t_struct(HackerData)2704_storage)dyn_storage"
      },
      {
        "astId": 2759,
        "contract": "contracts/HackerOnboard.sol:ETHRwandaHackathonOnboard",
        "label": "locks",
        "offset": 0,
        "slot": "13",
        "type": "t_array(t_address)dyn_storage"
      }
    ],
    "types": {
      "t_address": {
        "encoding": "inplace",
        "label": "address",
        "numberOfBytes": "20"
      },
      "t_array(t_address)dyn_storage": {
        "base": "t_address",
        "encoding": "dynamic_array",
        "label": "address[]",
        "numberOfBytes": "32"
      },
      "t_array(t_struct(HackerData)2704_storage)dyn_storage": {
        "base": "t_struct(HackerData)2704_storage",
        "encoding": "dynamic_array",
        "label": "struct HackerData[]",
        "numberOfBytes": "32"
      },
      "t_bool": {
        "encoding": "inplace",
        "label": "bool",
        "numberOfBytes": "1"
      },
      "t_bytes32": {
        "encoding": "inplace",
        "label": "bytes32",
        "numberOfBytes": "32"
      },
      "t_mapping(t_address,t_struct(HackerData)2704_storage)": {
        "encoding": "mapping",
        "key": "t_address",
        "label": "mapping(address => struct HackerData)",
        "numberOfBytes": "32",
        "value": "t_struct(HackerData)2704_storage"
      },
      "t_mapping(t_address,t_uint256)": {
        "encoding": "mapping",
        "key": "t_address",
        "label": "mapping(address => uint256)",
        "numberOfBytes": "32",
        "value": "t_uint256"
      },
      "t_mapping(t_bytes32,t_address)": {
        "encoding": "mapping",
        "key": "t_bytes32",
        "label": "mapping(bytes32 => address)",
        "numberOfBytes": "32",
        "value": "t_address"
      },
      "t_mapping(t_bytes32,t_struct(HackerData)2704_storage)": {
        "encoding": "mapping",
        "key": "t_bytes32",
        "label": "mapping(bytes32 => struct HackerData)",
        "numberOfBytes": "32",
        "value": "t_struct(HackerData)2704_storage"
      },
      "t_string_storage": {
        "encoding": "bytes",
        "label": "string",
        "numberOfBytes": "32"
      },
      "t_struct(HackerData)2704_storage": {
        "encoding": "inplace",
        "label": "struct HackerData",
        "members": [
          {
            "astId": 2693,
            "contract": "contracts/HackerOnboard.sol:ETHRwandaHackathonOnboard",
            "label": "hackerAddress",
            "offset": 0,
            "slot": "0",
            "type": "t_address"
          },
          {
            "astId": 2695,
            "contract": "contracts/HackerOnboard.sol:ETHRwandaHackathonOnboard",
            "label": "name",
            "offset": 0,
            "slot": "1",
            "type": "t_string_storage"
          },
          {
            "astId": 2697,
            "contract": "contracts/HackerOnboard.sol:ETHRwandaHackathonOnboard",
            "label": "email",
            "offset": 0,
            "slot": "2",
            "type": "t_bytes32"
          },
          {
            "astId": 2699,
            "contract": "contracts/HackerOnboard.sol:ETHRwandaHackathonOnboard",
            "label": "number",
            "offset": 0,
            "slot": "3",
            "type": "t_bytes32"
          },
          {
            "astId": 2701,
            "contract": "contracts/HackerOnboard.sol:ETHRwandaHackathonOnboard",
            "label": "class",
            "offset": 0,
            "slot": "4",
            "type": "t_address"
          },
          {
            "astId": 2703,
            "contract": "contracts/HackerOnboard.sol:ETHRwandaHackathonOnboard",
            "label": "initialized",
            "offset": 20,
            "slot": "4",
            "type": "t_bool"
          }
        ],
        "numberOfBytes": "160"
      },
      "t_uint256": {
        "encoding": "inplace",
        "label": "uint256",
        "numberOfBytes": "32"
      }
    }
  }
}