{
  "address": "0xf2252E14A1F6dC2C898ec16b7EdB227EE08Ccb6a",
  "abi": [
    {
      "inputs": [
        {
          "internalType": "bytes32",
          "name": "_salt",
          "type": "bytes32"
        }
      ],
      "stateMutability": "nonpayable",
      "type": "constructor"
    },
    {
      "inputs": [],
      "name": "ECDSAInvalidSignature",
      "type": "error"
    },
    {
      "inputs": [
        {
          "internalType": "uint256",
          "name": "length",
          "type": "uint256"
        }
      ],
      "name": "ECDSAInvalidSignatureLength",
      "type": "error"
    },
    {
      "inputs": [
        {
          "internalType": "bytes32",
          "name": "s",
          "type": "bytes32"
        }
      ],
      "name": "ECDSAInvalidSignatureS",
      "type": "error"
    },
    {
      "inputs": [],
      "name": "InsufficientBalance",
      "type": "error"
    },
    {
      "inputs": [],
      "name": "InvalidShortString",
      "type": "error"
    },
    {
      "inputs": [],
      "name": "NoValidMembership",
      "type": "error"
    },
    {
      "inputs": [
        {
          "internalType": "address",
          "name": "owner",
          "type": "address"
        }
      ],
      "name": "OwnableInvalidOwner",
      "type": "error"
    },
    {
      "inputs": [
        {
          "internalType": "address",
          "name": "account",
          "type": "address"
        }
      ],
      "name": "OwnableUnauthorizedAccount",
      "type": "error"
    },
    {
      "inputs": [],
      "name": "ReentrancyGuardReentrantCall",
      "type": "error"
    },
    {
      "inputs": [
        {
          "internalType": "string",
          "name": "str",
          "type": "string"
        }
      ],
      "name": "StringTooLong",
      "type": "error"
    },
    {
      "inputs": [],
      "name": "TransferFailed",
      "type": "error"
    },
    {
      "inputs": [],
      "name": "UnauthorizedAccess",
      "type": "error"
    },
    {
      "inputs": [],
      "name": "UserNotInitialized",
      "type": "error"
    },
    {
      "anonymous": false,
      "inputs": [],
      "name": "EIP712DomainChanged",
      "type": "event"
    },
    {
      "anonymous": false,
      "inputs": [
        {
          "indexed": true,
          "internalType": "address",
          "name": "hackerAddress",
          "type": "address"
        }
      ],
      "name": "HackerDataEdited",
      "type": "event"
    },
    {
      "anonymous": false,
      "inputs": [
        {
          "indexed": true,
          "internalType": "address",
          "name": "hackerAddress",
          "type": "address"
        }
      ],
      "name": "HackerInitialized",
      "type": "event"
    },
    {
      "anonymous": false,
      "inputs": [
        {
          "indexed": true,
          "internalType": "address",
          "name": "hackerAddress",
          "type": "address"
        },
        {
          "indexed": false,
          "internalType": "address",
          "name": "class",
          "type": "address"
        }
      ],
      "name": "HackerRegistered",
      "type": "event"
    },
    {
      "anonymous": false,
      "inputs": [
        {
          "indexed": true,
          "internalType": "address",
          "name": "previousOwner",
          "type": "address"
        },
        {
          "indexed": true,
          "internalType": "address",
          "name": "newOwner",
          "type": "address"
        }
      ],
      "name": "OwnershipTransferred",
      "type": "event"
    },
    {
      "anonymous": false,
      "inputs": [
        {
          "indexed": false,
          "internalType": "bool",
          "name": "isOpen",
          "type": "bool"
        }
      ],
      "name": "RegistrationStatusChanged",
      "type": "event"
    },
    {
      "anonymous": false,
      "inputs": [
        {
          "indexed": true,
          "internalType": "address",
          "name": "from",
          "type": "address"
        },
        {
          "indexed": true,
          "internalType": "address",
          "name": "to",
          "type": "address"
        },
        {
          "indexed": true,
          "internalType": "address",
          "name": "token",
          "type": "address"
        },
        {
          "indexed": false,
          "internalType": "uint256",
          "name": "tokenId",
          "type": "uint256"
        }
      ],
      "name": "RwCollectibleTransfer",
      "type": "event"
    },
    {
      "anonymous": false,
      "inputs": [
        {
          "indexed": true,
          "internalType": "address",
          "name": "from",
          "type": "address"
        },
        {
          "indexed": true,
          "internalType": "address",
          "name": "to",
          "type": "address"
        },
        {
          "indexed": false,
          "internalType": "uint256",
          "name": "amount",
          "type": "uint256"
        }
      ],
      "name": "RwETHTransfer",
      "type": "event"
    },
    {
      "anonymous": false,
      "inputs": [
        {
          "indexed": true,
          "internalType": "address",
          "name": "from",
          "type": "address"
        },
        {
          "indexed": true,
          "internalType": "address",
          "name": "to",
          "type": "address"
        },
        {
          "indexed": true,
          "internalType": "address",
          "name": "token",
          "type": "address"
        },
        {
          "indexed": false,
          "internalType": "uint256",
          "name": "amount",
          "type": "uint256"
        }
      ],
      "name": "RwTokenTransfer",
      "type": "event"
    },
    {
      "inputs": [],
      "name": "MAX_LOCKS",
      "outputs": [
        {
          "internalType": "uint256",
          "name": "",
          "type": "uint256"
        }
      ],
      "stateMutability": "view",
      "type": "function"
    },
    {
      "inputs": [],
      "name": "areRegistrationsOpen",
      "outputs": [
        {
          "internalType": "bool",
          "name": "",
          "type": "bool"
        }
      ],
      "stateMutability": "view",
      "type": "function"
    },
    {
      "inputs": [
        {
          "internalType": "address[]",
          "name": "hackerAddresses",
          "type": "address[]"
        },
        {
          "internalType": "string[]",
          "name": "names",
          "type": "string[]"
        },
        {
          "internalType": "string[]",
          "name": "emails",
          "type": "string[]"
        },
        {
          "internalType": "uint256[]",
          "name": "numbers",
          "type": "uint256[]"
        },
        {
          "internalType": "address[]",
          "name": "lockAddresses",
          "type": "address[]"
        }
      ],
      "name": "batchRegisterHackers",
      "outputs": [],
      "stateMutability": "nonpayable",
      "type": "function"
    },
    {
      "inputs": [
        {
          "internalType": "string",
          "name": "_name",
          "type": "string"
        },
        {
          "internalType": "string",
          "name": "_email",
          "type": "string"
        },
        {
          "internalType": "uint256",
          "name": "_number",
          "type": "uint256"
        }
      ],
      "name": "editHackerData",
      "outputs": [],
      "stateMutability": "nonpayable",
      "type": "function"
    },
    {
      "inputs": [],
      "name": "eip712Domain",
      "outputs": [
        {
          "internalType": "bytes1",
          "name": "fields",
          "type": "bytes1"
        },
        {
          "internalType": "string",
          "name": "name",
          "type": "string"
        },
        {
          "internalType": "string",
          "name": "version",
          "type": "string"
        },
        {
          "internalType": "uint256",
          "name": "chainId",
          "type": "uint256"
        },
        {
          "internalType": "address",
          "name": "verifyingContract",
          "type": "address"
        },
        {
          "internalType": "bytes32",
          "name": "salt",
          "type": "bytes32"
        },
        {
          "internalType": "uint256[]",
          "name": "extensions",
          "type": "uint256[]"
        }
      ],
      "stateMutability": "view",
      "type": "function"
    },
    {
      "inputs": [],
      "name": "getAllHackers",
      "outputs": [
        {
          "components": [
            {
              "internalType": "address",
              "name": "hackerAddress",
              "type": "address"
            },
            {
              "internalType": "string",
              "name": "name",
              "type": "string"
            },
            {
              "internalType": "bytes32",
              "name": "email",
              "type": "bytes32"
            },
            {
              "internalType": "bytes32",
              "name": "number",
              "type": "bytes32"
            },
            {
              "internalType": "address",
              "name": "class",
              "type": "address"
            },
            {
              "internalType": "bool",
              "name": "initialized",
              "type": "bool"
            }
          ],
          "internalType": "struct HackerData[]",
          "name": "",
          "type": "tuple[]"
        }
      ],
      "stateMutability": "view",
      "type": "function"
    },
    {
      "inputs": [],
      "name": "getAreRegistrationsOpen",
      "outputs": [
        {
          "internalType": "bool",
          "name": "",
          "type": "bool"
        }
      ],
      "stateMutability": "view",
      "type": "function"
    },
    {
      "inputs": [
        {
          "internalType": "address",
          "name": "userAddress",
          "type": "address"
        }
      ],
      "name": "getHackerDataByAddress",
      "outputs": [
        {
          "components": [
            {
              "internalType": "address",
              "name": "hackerAddress",
              "type": "address"
            },
            {
              "internalType": "string",
              "name": "name",
              "type": "string"
            },
            {
              "internalType": "bytes32",
              "name": "email",
              "type": "bytes32"
            },
            {
              "internalType": "bytes32",
              "name": "number",
              "type": "bytes32"
            },
            {
              "internalType": "address",
              "name": "class",
              "type": "address"
            },
            {
              "internalType": "bool",
              "name": "initialized",
              "type": "bool"
            }
          ],
          "internalType": "struct HackerData",
          "name": "user",
          "type": "tuple"
        }
      ],
      "stateMutability": "view",
      "type": "function"
    },
    {
      "inputs": [
        {
          "internalType": "address",
          "name": "_hackerAddress",
          "type": "address"
        }
      ],
      "name": "getHackerNonce",
      "outputs": [
        {
          "internalType": "uint256",
          "name": "",
          "type": "uint256"
        }
      ],
      "stateMutability": "view",
      "type": "function"
    },
    {
      "inputs": [
        {
          "internalType": "address",
          "name": "_address",
          "type": "address"
        }
      ],
      "name": "getHasValidKey",
      "outputs": [
        {
          "internalType": "bool",
          "name": "",
          "type": "bool"
        }
      ],
      "stateMutability": "view",
      "type": "function"
    },
    {
      "inputs": [
        {
          "internalType": "string",
          "name": "_email",
          "type": "string"
        }
      ],
      "name": "getIsEmailRegistered",
      "outputs": [
        {
          "internalType": "bool",
          "name": "",
          "type": "bool"
        }
      ],
      "stateMutability": "view",
      "type": "function"
    },
    {
      "inputs": [
        {
          "internalType": "address",
          "name": "_hackerAddress",
          "type": "address"
        }
      ],
      "name": "getIsHackerInitialized",
      "outputs": [
        {
          "internalType": "bool",
          "name": "",
          "type": "bool"
        }
      ],
      "stateMutability": "view",
      "type": "function"
    },
    {
      "inputs": [
        {
          "internalType": "uint256",
          "name": "_number",
          "type": "uint256"
        }
      ],
      "name": "getIsNumberRegistered",
      "outputs": [
        {
          "internalType": "bool",
          "name": "",
          "type": "bool"
        }
      ],
      "stateMutability": "view",
      "type": "function"
    },
    {
      "inputs": [],
      "name": "getMembershipContractAddress",
      "outputs": [
        {
          "internalType": "address",
          "name": "",
          "type": "address"
        }
      ],
      "stateMutability": "view",
      "type": "function"
    },
    {
      "inputs": [],
      "name": "getSalt",
      "outputs": [
        {
          "internalType": "bytes32",
          "name": "",
          "type": "bytes32"
        }
      ],
      "stateMutability": "view",
      "type": "function"
    },
    {
      "inputs": [
        {
          "internalType": "bytes",
          "name": "_signature",
          "type": "bytes"
        }
      ],
      "name": "initializeHackerProfile",
      "outputs": [],
      "stateMutability": "nonpayable",
      "type": "function"
    },
    {
      "inputs": [],
      "name": "owner",
      "outputs": [
        {
          "internalType": "address",
          "name": "",
          "type": "address"
        }
      ],
      "stateMutability": "view",
      "type": "function"
    },
    {
      "inputs": [
        {
          "internalType": "address",
          "name": "_hackerAddress",
          "type": "address"
        },
        {
          "internalType": "string",
          "name": "_name",
          "type": "string"
        },
        {
          "internalType": "string",
          "name": "_email",
          "type": "string"
        },
        {
          "internalType": "uint256",
          "name": "_number",
          "type": "uint256"
        },
        {
          "internalType": "address",
          "name": "_lockAddress",
          "type": "address"
        }
      ],
      "name": "registerHacker",
      "outputs": [],
      "stateMutability": "nonpayable",
      "type": "function"
    },
    {
      "inputs": [],
      "name": "renounceOwnership",
      "outputs": [],
      "stateMutability": "nonpayable",
      "type": "function"
    },
    {
      "inputs": [
        {
          "internalType": "address payable",
          "name": "_to",
          "type": "address"
        },
        {
          "internalType": "uint256",
          "name": "_amount",
          "type": "uint256"
        }
      ],
      "name": "sendEther",
      "outputs": [],
      "stateMutability": "nonpayable",
      "type": "function"
    },
    {
      "inputs": [
        {
          "internalType": "address",
          "name": "_address",
          "type": "address"
        }
      ],
      "name": "setMembershipLock",
      "outputs": [],
      "stateMutability": "nonpayable",
      "type": "function"
    },
    {
      "inputs": [
        {
          "internalType": "bool",
          "name": "_areRegistrationsOpen",
          "type": "bool"
        }
      ],
      "name": "setRegistrationsStatus",
      "outputs": [],
      "stateMutability": "nonpayable",
      "type": "function"
    },
    {
      "inputs": [
        {
          "internalType": "bytes32",
          "name": "_salt",
          "type": "bytes32"
        }
      ],
      "name": "setSalt",
      "outputs": [],
      "stateMutability": "nonpayable",
      "type": "function"
    },
    {
      "inputs": [
        {
          "internalType": "contract IERC20",
          "name": "_token",
          "type": "address"
        },
        {
          "internalType": "address",
          "name": "_to",
          "type": "address"
        },
        {
          "internalType": "uint256",
          "name": "_amount",
          "type": "uint256"
        }
      ],
      "name": "transferERC20",
      "outputs": [],
      "stateMutability": "nonpayable",
      "type": "function"
    },
    {
      "inputs": [
        {
          "internalType": "contract IERC721",
          "name": "_token",
          "type": "address"
        },
        {
          "internalType": "address",
          "name": "_to",
          "type": "address"
        },
        {
          "internalType": "uint256",
          "name": "_tokenId",
          "type": "uint256"
        }
      ],
      "name": "transferERC721",
      "outputs": [],
      "stateMutability": "nonpayable",
      "type": "function"
    },
    {
      "inputs": [
        {
          "internalType": "address",
          "name": "newOwner",
          "type": "address"
        }
      ],
      "name": "transferOwnership",
      "outputs": [],
      "stateMutability": "nonpayable",
      "type": "function"
    },
    {
      "stateMutability": "payable",
      "type": "receive"
    }
  ],
  "transactionHash": "0x7c55b8a59fac94f411205bf86cbde80327ad4848d98b18384d8113aacc74cd8e",
  "args": [
    "0x7c92af12a35ac62ec90ca00d384778d91557ed1d95b73a05a77d66c5b0a1f31e"
  ],
  "numDeployments": 1,
  "solcInputHash": "106cda29e96d37b0256be669c21cea56",
  "bytecode": "0x6101606040526006805460ff191690553480156200001c57600080fd5b5060405162002ab238038062002ab28339810160408190526200003f9162000248565b604080518082018252601281527122aa24293bb0b73230a430b1b5b0ba3437b760711b602080830191909152825180840190935260018352603160f81b90830152903380620000a957604051631e4fbdf760e01b8152600060048201526024015b60405180910390fd5b620000b4816200017c565b5060018055620000c6826002620001cc565b61012052620000d7816003620001cc565b61014052815160208084019190912060e052815190820120610100524660a0526200016560e05161010051604080517f8b73c3c69bb8fe3d512ecc4cf759cc79239f7b179b0ffacaa9a75d522b39400f60208201529081019290925260608201524660808201523060a082015260009060c00160405160208183030381529060405280519060200120905090565b60805250503060c052600555600160045562000448565b600080546001600160a01b038381166001600160a01b0319831681178455604051919092169283917f8be0079c531659141344cd1fd0a4f28419497f9722a3daafe3b4186f6b6457e09190a35050565b6000602083511015620001ec57620001e48362000205565b9050620001ff565b81620001f9848262000307565b5060ff90505b92915050565b600080829050601f8151111562000233578260405163305a27a960e01b8152600401620000a09190620003d3565b8051620002408262000423565b179392505050565b6000602082840312156200025b57600080fd5b5051919050565b634e487b7160e01b600052604160045260246000fd5b600181811c908216806200028d57607f821691505b602082108103620002ae57634e487b7160e01b600052602260045260246000fd5b50919050565b601f8211156200030257600081815260208120601f850160051c81016020861015620002dd5750805b601f850160051c820191505b81811015620002fe57828155600101620002e9565b5050505b505050565b81516001600160401b0381111562000323576200032362000262565b6200033b8162000334845462000278565b84620002b4565b602080601f8311600181146200037357600084156200035a5750858301515b600019600386901b1c1916600185901b178555620002fe565b600085815260208120601f198616915b82811015620003a45788860151825594840194600190910190840162000383565b5085821015620003c35787850151600019600388901b60f8161c191681555b5050505050600190811b01905550565b600060208083528351808285015260005b818110156200040257858101830151858201604001528201620003e4565b506000604082860101526040601f19601f8301168501019250505092915050565b80516020808301519190811015620002ae5760001960209190910360031b1b16919050565b60805160a05160c05160e05161010051610120516101405161260f620004a3600039600061189401526000611862015260006119940152600061196c015260006118c7015260006118f10152600061191b015261260f6000f3fe6080604052600436106101845760003560e01c8063715018a6116100d1578063a24237d51161008a578063c74c91fb11610064578063c74c91fb14610492578063d3229343146104b2578063f2fde38b146104c7578063ff408543146104e757600080fd5b8063a24237d514610425578063bb29ccc614610445578063c1756a2c1461047257600080fd5b8063715018a61461036a57806374e0c3cf1461037f57806384b0196e1461039f5780638da5cb5b146103c757806396a24484146103e55780639db5dbe41461040557600080fd5b80631fa4dc521161013e578063611ef44f11610118578063611ef44f146102e057806369254d40146103005780636d8ea5b4146103185780636dcafcee1461033857600080fd5b80631fa4dc52146102605780633de2c4831461028a57806351c732b0146102c057600080fd5b8062a170c914610190578063031a66b6146101b257806309fdf02e146101dd57806313a9589c146101fd5780631aca6376146102205780631e9f45a51461024057600080fd5b3661018b57005b600080fd5b34801561019c57600080fd5b506101b06101ab366004611cde565b61052a565b005b3480156101be57600080fd5b506101c7610579565b6040516101d49190611db3565b60405180910390f35b3480156101e957600080fd5b506101b06101f8366004611ed4565b6106bf565b34801561020957600080fd5b506102126108dd565b6040519081526020016101d4565b34801561022c57600080fd5b506101b061023b366004611f56565b610910565b34801561024c57600080fd5b506101b061025b366004611f97565b610a02565b34801561026c57600080fd5b5060065461027a9060ff1681565b60405190151581526020016101d4565b34801561029657600080fd5b506102126102a5366004611fe8565b6001600160a01b031660009081526007602052604090205490565b3480156102cc57600080fd5b506101b06102db366004612005565b610bc8565b3480156102ec57600080fd5b506101b06102fb36600461209a565b61101a565b34801561030c57600080fd5b5060065460ff1661027a565b34801561032457600080fd5b5061027a610333366004611fe8565b611027565b34801561034457600080fd5b50600c546001600160a01b03165b6040516001600160a01b0390911681526020016101d4565b34801561037657600080fd5b506101b061109c565b34801561038b57600080fd5b506101b061039a366004611fe8565b6110b0565b3480156103ab57600080fd5b506103b46110da565b6040516101d497969594939291906120b3565b3480156103d357600080fd5b506000546001600160a01b0316610352565b3480156103f157600080fd5b5061027a61040036600461209a565b611120565b34801561041157600080fd5b506101b0610420366004611f56565b611159565b34801561043157600080fd5b5061027a610440366004612149565b611285565b34801561045157600080fd5b50610465610460366004611fe8565b6112b5565b6040516101d4919061217e565b34801561047e57600080fd5b506101b061048d366004612191565b6113e6565b34801561049e57600080fd5b506101b06104ad366004612330565b6114fa565b3480156104be57600080fd5b50610212600681565b3480156104d357600080fd5b506101b06104e2366004611fe8565b6116fe565b3480156104f357600080fd5b5061027a610502366004611fe8565b6001600160a01b0316600090815260096020526040902060040154600160a01b900460ff1690565b61053261173c565b6006805460ff19168215159081179091556040519081527f1a30f630d0950ddfc90d43ec4e405fd012ddb4ba669dd2bd5e95439631c4221f9060200160405180910390a150565b6060600d805480602002602001604051908101604052809291908181526020016000905b828210156106b65760008481526020908190206040805160c081019091526005850290910180546001600160a01b0316825260018101805492939192918401916105e690612402565b80601f016020809104026020016040519081016040528092919081815260200182805461061290612402565b801561065f5780601f106106345761010080835404028352916020019161065f565b820191906000526020600020905b81548152906001019060200180831161064257829003601f168201915b50505091835250506002820154602080830191909152600383015460408301526004909201546001600160a01b0381166060830152600160a01b900460ff161515608090910152908252600192909201910161059d565b50505050905090565b3360009081526009602052604090206004810154600160a01b900460ff166107235760405162461bcd60e51b8152602060048201526012602482015271155cd95c939bdd125b9a5d1a585b1a5e995960721b60448201526064015b60405180910390fd5b600081600301549050600061073a84600554611769565b90508082146107d7576000818152600b60205260409020546001600160a01b0316156107a85760405162461bcd60e51b815260206004820152601e60248201527f55736572416c7265616479526567697374657265645769746850686f6e650000604482015260640161071a565b6000818152600b602052604080822080546001600160a01b031990811633179091558483529120805490911690555b60008360020154905060006107ee8760055461179f565b905080821461088b576000818152600a60205260409020546001600160a01b03161561085c5760405162461bcd60e51b815260206004820152601e60248201527f55736572416c72656164795265676973746572656457697468456d61696c0000604482015260640161071a565b6000818152600a602052604080822080546001600160a01b031990811633179091558483529120805490911690555b600185016108998982612487565b50600285018190556003850183905560405133907f899e426a1145f5a7442566cb6f469b4a55da6844560a30d29ef1ed98e4387cac90600090a25050505050505050565b600080546001600160a01b0316331461090957604051631a27eac360e11b815260040160405180910390fd5b5060055490565b33600061091c82611027565b90508061093c5760405163f7180d6760e01b815260040160405180910390fd5b604051632142170760e11b81523360048201526001600160a01b038581166024830152604482018590528616906342842e0e90606401600060405180830381600087803b15801561098c57600080fd5b505af11580156109a0573d6000803e3d6000fd5b50505050846001600160a01b0316846001600160a01b0316336001600160a01b03167fa7418bd3094e0f5ece1f8051255ef65d992cefcb0631709d897d8a859442f929866040516109f391815260200190565b60405180910390a45050505050565b3360009081526009602052604090206004810154600160a01b900460ff1615610a625760405162461bcd60e51b8152602060048201526012602482015271105b1c9958591e525b9a5d1a585b1a5e995960721b604482015260640161071a565b3360008181526007602090815260408083205481517f8436e0b04c93157f90a55acb9c14dc3f4dfb2f28f2f94c63c091f411286818a19381019390935290820193909352606081018390526080016040516020818303038152906040528051906020012090506000610ad3826117b4565b90506000610ae182876117e1565b90506001600160a01b0381163314610b2d5760405162461bcd60e51b815260206004820152600f60248201526e2737ba20b2323932b9b9a7bbb732b960891b604482015260640161071a565b84546001600160a01b031990811633908117875560028701546000908152600a60209081526040808320805486168517905560038a01548352600b8252808320805490951684179094558282526007905282812087905560048801805460ff60a01b1916600160a01b179055915190917f03a11e363798d177d3b70e778154773018cf4669a4ecf1fdbacd173248bb464e91a2505050505050565b60065460ff16610c105760405162461bcd60e51b8152602060048201526013602482015272149959da5cdd1c985d1a5bdb9cd0db1bdcd959606a1b604482015260640161071a565b6001600160a01b038581166000908152600960205260409020541615610c705760405162461bcd60e51b8152602060048201526015602482015274155cd95c905b1c9958591e549959da5cdd195c9959605a1b604482015260640161071a565b6000610c7e83600554611769565b6000818152600b60205260409020549091506001600160a01b031615610ce65760405162461bcd60e51b815260206004820152601e60248201527f55736572416c7265616479526567697374657265645769746850686f6e650000604482015260640161071a565b6000610cf48560055461179f565b6000818152600a60205260409020549091506001600160a01b031615610d5c5760405162461bcd60e51b815260206004820152601e60248201527f55736572416c72656164795265676973746572656457697468456d61696c0000604482015260640161071a565b6040805160c0810182526001600160a01b03898116825260208083018a8152838501869052606084018790528783166080850152600060a085018190528781526008909252939020825181546001600160a01b03191692169190911781559151909182916001820190610dcf9082612487565b5060408281015160028301556060830151600383015560808301516004909201805460a0909401511515600160a01b026001600160a81b03199094166001600160a01b0393841617939093179092558981166000908152600960209081529290208351815492166001600160a01b031992909216919091178155908201518291906001820190610e5f9082612487565b5060408281015160028301556060830151600383015560808301516004909201805460a0909401511515600160a01b026001600160a81b03199094166001600160a01b0393841617939093179092556000848152600a602090815283822080548d85166001600160a01b03199182168117909255888452600b8352948320805486169091179055600d80546001810182559252845160059092027fd7b6990105719101dabeb77144f2a3385c8033acd3af97e9423a695e81ad1eb581018054939094169290941691909117825583015183927fd7b6990105719101dabeb77144f2a3385c8033acd3af97e9423a695e81ad1eb60190610f5e9082612487565b5060408281015160028301556060830151600383015560808301516004928301805460a0909501511515600160a01b026001600160a81b03199095166001600160a01b0392831617949094179093558154928b1660009081526007602052908120839055610fcb83612547565b90915550506040516001600160a01b0385811682528916907f2ee9bb10985d2baeb1f5ee83dc4b9a6a8bba35763f716ef99bb4b7ea21011d5c9060200160405180910390a25050505050505050565b61102261173c565b600555565b600c54604051631b63a96d60e21b81526001600160a01b0383811660048301526000921690636d8ea5b490602401602060405180830381865afa158015611072573d6000803e3d6000fd5b505050506040513d601f19601f82011682018060405250810190611096919061256e565b92915050565b6110a461173c565b6110ae600061180b565b565b6110b861173c565b600c80546001600160a01b0319166001600160a01b0392909216919091179055565b6000606080600080600060606110ee61185b565b6110f661188d565b60408051600080825260208201909252600f60f81b9b939a50919850469750309650945092509050565b60008061112f83600554611769565b600081815260086020526040902060010180549192509061114f90612402565b1515949350505050565b33600090815260096020526040902060040154600160a01b900460ff1661119357604051630a0e3b7560e21b815260040160405180910390fd5b6040516323b872dd60e01b81523360048201526001600160a01b038381166024830152604482018390528416906323b872dd906064016020604051808303816000875af11580156111e8573d6000803e3d6000fd5b505050506040513d601f19601f8201168201806040525081019061120c919061256e565b611229576040516312171d8360e31b815260040160405180910390fd5b826001600160a01b0316826001600160a01b0316336001600160a01b03167fb7a2adcaba30b7e13cf165014f76f31abfa2b823191171dabef01298a02f5b148460405161127891815260200190565b60405180910390a4505050565b6000806112948360055461179f565b6000908152600a60205260409020546001600160a01b031615159392505050565b6040805160c080820183526000808352606060208085018290528486018390529084018290526080840182905260a084018290526001600160a01b0386811683526009825291859020855193840190955284549091168252600184018054939492939184019161132490612402565b80601f016020809104026020016040519081016040528092919081815260200182805461135090612402565b801561139d5780601f106113725761010080835404028352916020019161139d565b820191906000526020600020905b81548152906001019060200180831161138057829003601f168201915b505050918352505060028201546020820152600382015460408201526004909101546001600160a01b0381166060830152600160a01b900460ff16151560809091015292915050565b33600090815260096020526040902060040154600160a01b900460ff1661142057604051630a0e3b7560e21b815260040160405180910390fd5b8047101561144157604051631e9acf1760e31b815260040160405180910390fd5b6000826001600160a01b03168260405160006040518083038185875af1925050503d806000811461148e576040519150601f19603f3d011682016040523d82523d6000602084013e611493565b606091505b50509050806114b5576040516312171d8360e31b815260040160405180910390fd5b6040518281526001600160a01b0384169033907f0ed2f25f2e8fac60d5a381e78fd218e041217d544665747acac4cb9ab8e9c6179060200160405180910390a3505050565b61150261173c565b60065460ff166115545760405162461bcd60e51b815260206004820152601860248201527f526567697374726174696f6e732061726520636c6f7365640000000000000000604482015260640161071a565b83518551148015611566575082518451145b8015611573575081518351145b8015611580575080518251145b6115cc5760405162461bcd60e51b815260206004820152601860248201527f4172726179206c656e67746873206d757374206d617463680000000000000000604482015260640161071a565b60005b85518110156116f6576116628682815181106115ed576115ed61258b565b60200260200101518683815181106116075761160761258b565b60200260200101518684815181106116215761162161258b565b602002602001015186858151811061163b5761163b61258b565b60200260200101518686815181106116555761165561258b565b6020026020010151610bc8565b8581815181106116745761167461258b565b60200260200101516001600160a01b03167f2ee9bb10985d2baeb1f5ee83dc4b9a6a8bba35763f716ef99bb4b7ea21011d5c8383815181106116b8576116b861258b565b60200260200101516040516116dc91906001600160a01b0391909116815260200190565b60405180910390a2806116ee81612547565b9150506115cf565b505050505050565b61170661173c565b6001600160a01b03811661173057604051631e4fbdf760e01b81526000600482015260240161071a565b6117398161180b565b50565b6000546001600160a01b031633146110ae5760405163118cdaa760e01b815233600482015260240161071a565b60408051602081018490529081018290526000906060015b60405160208183030381529060405280519060200120905092915050565b600082826040516020016117819291906125a1565b60006110966117c16118ba565b8360405161190160f01b8152600281019290925260228201526042902090565b6000806000806117f186866119e5565b9250925092506118018282611a32565b5090949350505050565b600080546001600160a01b038381166001600160a01b0319831681178455604051919092169283917f8be0079c531659141344cd1fd0a4f28419497f9722a3daafe3b4186f6b6457e09190a35050565b60606118887f00000000000000000000000000000000000000000000000000000000000000006002611aef565b905090565b60606118887f00000000000000000000000000000000000000000000000000000000000000006003611aef565b6000306001600160a01b037f00000000000000000000000000000000000000000000000000000000000000001614801561191357507f000000000000000000000000000000000000000000000000000000000000000046145b1561193d57507f000000000000000000000000000000000000000000000000000000000000000090565b611888604080517f8b73c3c69bb8fe3d512ecc4cf759cc79239f7b179b0ffacaa9a75d522b39400f60208201527f0000000000000000000000000000000000000000000000000000000000000000918101919091527f000000000000000000000000000000000000000000000000000000000000000060608201524660808201523060a082015260009060c00160405160208183030381529060405280519060200120905090565b60008060008351604103611a1f5760208401516040850151606086015160001a611a1188828585611b9a565b955095509550505050611a2b565b50508151600091506002905b9250925092565b6000826003811115611a4657611a466125c3565b03611a4f575050565b6001826003811115611a6357611a636125c3565b03611a815760405163f645eedf60e01b815260040160405180910390fd5b6002826003811115611a9557611a956125c3565b03611ab65760405163fce698f760e01b81526004810182905260240161071a565b6003826003811115611aca57611aca6125c3565b03611aeb576040516335e2f38360e21b81526004810182905260240161071a565b5050565b606060ff8314611b0957611b0283611c69565b9050611096565b818054611b1590612402565b80601f0160208091040260200160405190810160405280929190818152602001828054611b4190612402565b8015611b8e5780601f10611b6357610100808354040283529160200191611b8e565b820191906000526020600020905b815481529060010190602001808311611b7157829003601f168201915b50505050509050611096565b600080807f7fffffffffffffffffffffffffffffff5d576e7357a4501ddfe92f46681b20a0841115611bd55750600091506003905082611c5f565b604080516000808252602082018084528a905260ff891692820192909252606081018790526080810186905260019060a0016020604051602081039080840390855afa158015611c29573d6000803e3d6000fd5b5050604051601f1901519150506001600160a01b038116611c5557506000925060019150829050611c5f565b9250600091508190505b9450945094915050565b60606000611c7683611ca8565b604080516020808252818301909252919250600091906020820181803683375050509182525060208101929092525090565b600060ff8216601f81111561109657604051632cd44ac360e21b815260040160405180910390fd5b801515811461173957600080fd5b600060208284031215611cf057600080fd5b8135611cfb81611cd0565b9392505050565b60005b83811015611d1d578181015183820152602001611d05565b50506000910152565b60008151808452611d3e816020860160208601611d02565b601f01601f19169290920160200192915050565b600060018060a01b03808351168452602083015160c06020860152611d7a60c0860182611d26565b9050604084015160408601526060840151606086015281608085015116608086015260a0840151151560a0860152809250505092915050565b6000602080830181845280855180835260408601915060408160051b870101925083870160005b82811015611e0857603f19888603018452611df6858351611d52565b94509285019290850190600101611dda565b5092979650505050505050565b634e487b7160e01b600052604160045260246000fd5b604051601f8201601f1916810167ffffffffffffffff81118282101715611e5457611e54611e15565b604052919050565b600067ffffffffffffffff831115611e7657611e76611e15565b611e89601f8401601f1916602001611e2b565b9050828152838383011115611e9d57600080fd5b828260208301376000602084830101529392505050565b600082601f830112611ec557600080fd5b611cfb83833560208501611e5c565b600080600060608486031215611ee957600080fd5b833567ffffffffffffffff80821115611f0157600080fd5b611f0d87838801611eb4565b94506020860135915080821115611f2357600080fd5b50611f3086828701611eb4565b925050604084013590509250925092565b6001600160a01b038116811461173957600080fd5b600080600060608486031215611f6b57600080fd5b8335611f7681611f41565b92506020840135611f8681611f41565b929592945050506040919091013590565b600060208284031215611fa957600080fd5b813567ffffffffffffffff811115611fc057600080fd5b8201601f81018413611fd157600080fd5b611fe084823560208401611e5c565b949350505050565b600060208284031215611ffa57600080fd5b8135611cfb81611f41565b600080600080600060a0868803121561201d57600080fd5b853561202881611f41565b9450602086013567ffffffffffffffff8082111561204557600080fd5b61205189838a01611eb4565b9550604088013591508082111561206757600080fd5b5061207488828901611eb4565b93505060608601359150608086013561208c81611f41565b809150509295509295909350565b6000602082840312156120ac57600080fd5b5035919050565b60ff60f81b881681526000602060e0818401526120d360e084018a611d26565b83810360408501526120e5818a611d26565b606085018990526001600160a01b038816608086015260a0850187905284810360c0860152855180825283870192509083019060005b818110156121375783518352928401929184019160010161211b565b50909c9b505050505050505050505050565b60006020828403121561215b57600080fd5b813567ffffffffffffffff81111561217257600080fd5b611fe084828501611eb4565b602081526000611cfb6020830184611d52565b600080604083850312156121a457600080fd5b82356121af81611f41565b946020939093013593505050565b600067ffffffffffffffff8211156121d7576121d7611e15565b5060051b60200190565b600082601f8301126121f257600080fd5b81356020612207612202836121bd565b611e2b565b82815260059290921b8401810191818101908684111561222657600080fd5b8286015b8481101561224a57803561223d81611f41565b835291830191830161222a565b509695505050505050565b600082601f83011261226657600080fd5b81356020612276612202836121bd565b82815260059290921b8401810191818101908684111561229557600080fd5b8286015b8481101561224a57803567ffffffffffffffff8111156122b95760008081fd5b6122c78986838b0101611eb4565b845250918301918301612299565b600082601f8301126122e657600080fd5b813560206122f6612202836121bd565b82815260059290921b8401810191818101908684111561231557600080fd5b8286015b8481101561224a5780358352918301918301612319565b600080600080600060a0868803121561234857600080fd5b853567ffffffffffffffff8082111561236057600080fd5b61236c89838a016121e1565b9650602088013591508082111561238257600080fd5b61238e89838a01612255565b955060408801359150808211156123a457600080fd5b6123b089838a01612255565b945060608801359150808211156123c657600080fd5b6123d289838a016122d5565b935060808801359150808211156123e857600080fd5b506123f5888289016121e1565b9150509295509295909350565b600181811c9082168061241657607f821691505b60208210810361243657634e487b7160e01b600052602260045260246000fd5b50919050565b601f82111561248257600081815260208120601f850160051c810160208610156124635750805b601f850160051c820191505b818110156116f65782815560010161246f565b505050565b815167ffffffffffffffff8111156124a1576124a1611e15565b6124b5816124af8454612402565b8461243c565b602080601f8311600181146124ea57600084156124d25750858301515b600019600386901b1c1916600185901b1785556116f6565b600085815260208120601f198616915b82811015612519578886015182559484019460019091019084016124fa565b50858210156125375787850151600019600388901b60f8161c191681555b5050505050600190811b01905550565b60006001820161256757634e487b7160e01b600052601160045260246000fd5b5060010190565b60006020828403121561258057600080fd5b8151611cfb81611cd0565b634e487b7160e01b600052603260045260246000fd5b600083516125b3818460208801611d02565b9190910191825250602001919050565b634e487b7160e01b600052602160045260246000fdfea26469706673582212203f935e14d3b95633bbb647f64d1c07fe13b0a691e0a6adb20fa066b483480e1764736f6c63430008140033",
  "devdoc": {
    "author": "Danny Thomx ",
    "errors": {
      "ECDSAInvalidSignature()": [
        {
          "details": "The signature derives the `address(0)`."
        }
      ],
      "ECDSAInvalidSignatureLength(uint256)": [
        {
          "details": "The signature has an invalid length."
        }
      ],
      "ECDSAInvalidSignatureS(bytes32)": [
        {
          "details": "The signature has an S value that is in the upper half order."
        }
      ],
      "OwnableInvalidOwner(address)": [
        {
          "details": "The owner is not a valid owner account. (eg. `address(0)`)"
        }
      ],
      "OwnableUnauthorizedAccount(address)": [
        {
          "details": "The caller account is not authorized to perform an operation."
        }
      ],
      "ReentrancyGuardReentrantCall()": [
        {
          "details": "Unauthorized reentrant call."
        }
      ]
    },
    "events": {
      "EIP712DomainChanged()": {
        "details": "MAY be emitted to signal that the domain could have changed."
      }
    },
    "kind": "dev",
    "methods": {
      "eip712Domain()": {
        "details": "See {IERC-5267}."
      },
      "getIsEmailRegistered(string)": {
        "params": {
          "_email": "The email to check."
        },
        "returns": {
          "_0": "True if the email has been used to register a hacker, false otherwise."
        }
      },
      "getIsHackerInitialized(address)": {
        "params": {
          "_hackerAddress": "The address of the hacker."
        },
        "returns": {
          "_0": "True if the hacker's profile is initialized, false otherwise."
        }
      },
      "getIsNumberRegistered(uint256)": {
        "params": {
          "_number": "The phone number to check."
        },
        "returns": {
          "_0": "True if the hacker is registered, false otherwise."
        }
      },
      "owner()": {
        "details": "Returns the address of the current owner."
      },
      "renounceOwnership()": {
        "details": "Leaves the contract without owner. It will not be possible to call `onlyOwner` functions. Can only be called by the current owner. NOTE: Renouncing ownership will leave the contract without an owner, thereby disabling any functionality that is only available to the owner."
      },
      "sendEther(address,uint256)": {
        "params": {
          "_amount": "The amount of Ether to send.",
          "_to": "The address to send Ether to."
        }
      },
      "transferERC20(address,address,uint256)": {
        "params": {
          "_amount": "The amount of tokens to transfer.",
          "_to": "The address to transfer tokens to.",
          "_token": "The ERC20 token contract."
        }
      },
      "transferERC721(address,address,uint256)": {
        "params": {
          "_to": "The address to transfer tokens to.",
          "_token": "The ERC721 token contract.",
          "_tokenId": "The ID of the token to transfer."
        }
      },
      "transferOwnership(address)": {
        "details": "Transfers ownership of the contract to a new account (`newOwner`). Can only be called by the current owner."
      }
    },
    "title": "ETHRwanda Hackathon Registry",
    "version": 1
  },
  "userdoc": {
    "kind": "user",
    "methods": {
      "getIsEmailRegistered(string)": {
        "notice": "Checks if email has been used to register a hacker."
      },
      "getIsHackerInitialized(address)": {
        "notice": "Checks if a hacker's profile is initialized."
      },
      "getIsNumberRegistered(uint256)": {
        "notice": "Checks if a hacker is registered by phone number."
      },
      "sendEther(address,uint256)": {
        "notice": "Sends Ether to a specified address."
      },
      "transferERC20(address,address,uint256)": {
        "notice": "Transfers ERC20 tokens to a specified address."
      },
      "transferERC721(address,address,uint256)": {
        "notice": "Transfers ERC721 tokens to a specified address."
      }
    },
    "notice": "Manages the registration and data of hackers participating in the ETH Rwanda Hackathon.",
    "version": 1
  },
  "storageLayout": {
    "storage": [
      {
        "astId": 8,
        "contract": "contracts/HackerOnboard.sol:ETHRwandaHackathonOnboard",
        "label": "_owner",
        "offset": 0,
        "slot": "0",
        "type": "t_address"
      },
      {
        "astId": 408,
        "contract": "contracts/HackerOnboard.sol:ETHRwandaHackathonOnboard",
        "label": "_status",
        "offset": 0,
        "slot": "1",
        "type": "t_uint256"
      },
      {
        "astId": 1433,
        "contract": "contracts/HackerOnboard.sol:ETHRwandaHackathonOnboard",
        "label": "_nameFallback",
        "offset": 0,
        "slot": "2",
        "type": "t_string_storage"
      },
      {
        "astId": 1435,
        "contract": "contracts/HackerOnboard.sol:ETHRwandaHackathonOnboard",
        "label": "_versionFallback",
        "offset": 0,
        "slot": "3",
        "type": "t_string_storage"
      },
      {
        "astId": 2937,
        "contract": "contracts/HackerOnboard.sol:ETHRwandaHackathonOnboard",
        "label": "nonce",
        "offset": 0,
        "slot": "4",
        "type": "t_uint256"
      },
      {
        "astId": 2939,
        "contract": "contracts/HackerOnboard.sol:ETHRwandaHackathonOnboard",
        "label": "salt",
        "offset": 0,
        "slot": "5",
        "type": "t_bytes32"
      },
      {
        "astId": 2942,
        "contract": "contracts/HackerOnboard.sol:ETHRwandaHackathonOnboard",
        "label": "areRegistrationsOpen",
        "offset": 0,
        "slot": "6",
        "type": "t_bool"
      },
      {
        "astId": 2955,
        "contract": "contracts/HackerOnboard.sol:ETHRwandaHackathonOnboard",
        "label": "hackerNonceByAddress",
        "offset": 0,
        "slot": "7",
        "type": "t_mapping(t_address,t_uint256)"
      },
      {
        "astId": 2960,
        "contract": "contracts/HackerOnboard.sol:ETHRwandaHackathonOnboard",
        "label": "hackersByPhone",
        "offset": 0,
        "slot": "8",
        "type": "t_mapping(t_bytes32,t_struct(HackerData)2899_storage)"
      },
      {
        "astId": 2965,
        "contract": "contracts/HackerOnboard.sol:ETHRwandaHackathonOnboard",
        "label": "hackersByAddress",
        "offset": 0,
        "slot": "9",
        "type": "t_mapping(t_address,t_struct(HackerData)2899_storage)"
      },
      {
        "astId": 2969,
        "contract": "contracts/HackerOnboard.sol:ETHRwandaHackathonOnboard",
        "label": "hackerEmailHashes",
        "offset": 0,
        "slot": "10",
        "type": "t_mapping(t_bytes32,t_address)"
      },
      {
        "astId": 2973,
        "contract": "contracts/HackerOnboard.sol:ETHRwandaHackathonOnboard",
        "label": "hackerNumberHashes",
        "offset": 0,
        "slot": "11",
        "type": "t_mapping(t_bytes32,t_address)"
      },
      {
        "astId": 2975,
        "contract": "contracts/HackerOnboard.sol:ETHRwandaHackathonOnboard",
        "label": "membershipLock",
        "offset": 0,
        "slot": "12",
        "type": "t_address"
      },
      {
        "astId": 2979,
        "contract": "contracts/HackerOnboard.sol:ETHRwandaHackathonOnboard",
        "label": "users",
        "offset": 0,
        "slot": "13",
        "type": "t_array(t_struct(HackerData)2899_storage)dyn_storage"
      },
      {
        "astId": 2982,
        "contract": "contracts/HackerOnboard.sol:ETHRwandaHackathonOnboard",
        "label": "locks",
        "offset": 0,
        "slot": "14",
        "type": "t_array(t_address)dyn_storage"
      }
    ],
    "types": {
      "t_address": {
        "encoding": "inplace",
        "label": "address",
        "numberOfBytes": "20"
      },
      "t_array(t_address)dyn_storage": {
        "base": "t_address",
        "encoding": "dynamic_array",
        "label": "address[]",
        "numberOfBytes": "32"
      },
      "t_array(t_struct(HackerData)2899_storage)dyn_storage": {
        "base": "t_struct(HackerData)2899_storage",
        "encoding": "dynamic_array",
        "label": "struct HackerData[]",
        "numberOfBytes": "32"
      },
      "t_bool": {
        "encoding": "inplace",
        "label": "bool",
        "numberOfBytes": "1"
      },
      "t_bytes32": {
        "encoding": "inplace",
        "label": "bytes32",
        "numberOfBytes": "32"
      },
      "t_mapping(t_address,t_struct(HackerData)2899_storage)": {
        "encoding": "mapping",
        "key": "t_address",
        "label": "mapping(address => struct HackerData)",
        "numberOfBytes": "32",
        "value": "t_struct(HackerData)2899_storage"
      },
      "t_mapping(t_address,t_uint256)": {
        "encoding": "mapping",
        "key": "t_address",
        "label": "mapping(address => uint256)",
        "numberOfBytes": "32",
        "value": "t_uint256"
      },
      "t_mapping(t_bytes32,t_address)": {
        "encoding": "mapping",
        "key": "t_bytes32",
        "label": "mapping(bytes32 => address)",
        "numberOfBytes": "32",
        "value": "t_address"
      },
      "t_mapping(t_bytes32,t_struct(HackerData)2899_storage)": {
        "encoding": "mapping",
        "key": "t_bytes32",
        "label": "mapping(bytes32 => struct HackerData)",
        "numberOfBytes": "32",
        "value": "t_struct(HackerData)2899_storage"
      },
      "t_string_storage": {
        "encoding": "bytes",
        "label": "string",
        "numberOfBytes": "32"
      },
      "t_struct(HackerData)2899_storage": {
        "encoding": "inplace",
        "label": "struct HackerData",
        "members": [
          {
            "astId": 2888,
            "contract": "contracts/HackerOnboard.sol:ETHRwandaHackathonOnboard",
            "label": "hackerAddress",
            "offset": 0,
            "slot": "0",
            "type": "t_address"
          },
          {
            "astId": 2890,
            "contract": "contracts/HackerOnboard.sol:ETHRwandaHackathonOnboard",
            "label": "name",
            "offset": 0,
            "slot": "1",
            "type": "t_string_storage"
          },
          {
            "astId": 2892,
            "contract": "contracts/HackerOnboard.sol:ETHRwandaHackathonOnboard",
            "label": "email",
            "offset": 0,
            "slot": "2",
            "type": "t_bytes32"
          },
          {
            "astId": 2894,
            "contract": "contracts/HackerOnboard.sol:ETHRwandaHackathonOnboard",
            "label": "number",
            "offset": 0,
            "slot": "3",
            "type": "t_bytes32"
          },
          {
            "astId": 2896,
            "contract": "contracts/HackerOnboard.sol:ETHRwandaHackathonOnboard",
            "label": "class",
            "offset": 0,
            "slot": "4",
            "type": "t_address"
          },
          {
            "astId": 2898,
            "contract": "contracts/HackerOnboard.sol:ETHRwandaHackathonOnboard",
            "label": "initialized",
            "offset": 20,
            "slot": "4",
            "type": "t_bool"
          }
        ],
        "numberOfBytes": "160"
      },
      "t_uint256": {
        "encoding": "inplace",
        "label": "uint256",
        "numberOfBytes": "32"
      }
    }
  }
}