{
  "address": "0x0b19DA881924165886F9a4E3d4d5A754Dd73b139",
  "abi": [
    {
      "inputs": [
        {
          "internalType": "bytes32",
          "name": "_salt",
          "type": "bytes32"
        }
      ],
      "stateMutability": "nonpayable",
      "type": "constructor"
    },
    {
      "inputs": [],
      "name": "ECDSAInvalidSignature",
      "type": "error"
    },
    {
      "inputs": [
        {
          "internalType": "uint256",
          "name": "length",
          "type": "uint256"
        }
      ],
      "name": "ECDSAInvalidSignatureLength",
      "type": "error"
    },
    {
      "inputs": [
        {
          "internalType": "bytes32",
          "name": "s",
          "type": "bytes32"
        }
      ],
      "name": "ECDSAInvalidSignatureS",
      "type": "error"
    },
    {
      "inputs": [],
      "name": "InsufficientBalance",
      "type": "error"
    },
    {
      "inputs": [],
      "name": "InvalidShortString",
      "type": "error"
    },
    {
      "inputs": [
        {
          "internalType": "address",
          "name": "owner",
          "type": "address"
        }
      ],
      "name": "OwnableInvalidOwner",
      "type": "error"
    },
    {
      "inputs": [
        {
          "internalType": "address",
          "name": "account",
          "type": "address"
        }
      ],
      "name": "OwnableUnauthorizedAccount",
      "type": "error"
    },
    {
      "inputs": [],
      "name": "ReentrancyGuardReentrantCall",
      "type": "error"
    },
    {
      "inputs": [
        {
          "internalType": "string",
          "name": "str",
          "type": "string"
        }
      ],
      "name": "StringTooLong",
      "type": "error"
    },
    {
      "inputs": [],
      "name": "TransferFailed",
      "type": "error"
    },
    {
      "inputs": [],
      "name": "UnauthorizedAccess",
      "type": "error"
    },
    {
      "inputs": [],
      "name": "UserNotInitialized",
      "type": "error"
    },
    {
      "anonymous": false,
      "inputs": [],
      "name": "EIP712DomainChanged",
      "type": "event"
    },
    {
      "anonymous": false,
      "inputs": [
        {
          "indexed": true,
          "internalType": "address",
          "name": "hackerAddress",
          "type": "address"
        }
      ],
      "name": "HackerDataEdited",
      "type": "event"
    },
    {
      "anonymous": false,
      "inputs": [
        {
          "indexed": true,
          "internalType": "address",
          "name": "hackerAddress",
          "type": "address"
        }
      ],
      "name": "HackerInitialized",
      "type": "event"
    },
    {
      "anonymous": false,
      "inputs": [
        {
          "indexed": true,
          "internalType": "address",
          "name": "hackerAddress",
          "type": "address"
        },
        {
          "indexed": false,
          "internalType": "address",
          "name": "class",
          "type": "address"
        }
      ],
      "name": "HackerRegistered",
      "type": "event"
    },
    {
      "anonymous": false,
      "inputs": [
        {
          "indexed": true,
          "internalType": "address",
          "name": "previousOwner",
          "type": "address"
        },
        {
          "indexed": true,
          "internalType": "address",
          "name": "newOwner",
          "type": "address"
        }
      ],
      "name": "OwnershipTransferred",
      "type": "event"
    },
    {
      "anonymous": false,
      "inputs": [
        {
          "indexed": false,
          "internalType": "bool",
          "name": "isOpen",
          "type": "bool"
        }
      ],
      "name": "RegistrationStatusChanged",
      "type": "event"
    },
    {
      "anonymous": false,
      "inputs": [
        {
          "indexed": true,
          "internalType": "address",
          "name": "from",
          "type": "address"
        },
        {
          "indexed": true,
          "internalType": "address",
          "name": "to",
          "type": "address"
        },
        {
          "indexed": true,
          "internalType": "address",
          "name": "token",
          "type": "address"
        },
        {
          "indexed": false,
          "internalType": "uint256",
          "name": "tokenId",
          "type": "uint256"
        }
      ],
      "name": "RwCollectibleTransfer",
      "type": "event"
    },
    {
      "anonymous": false,
      "inputs": [
        {
          "indexed": true,
          "internalType": "address",
          "name": "from",
          "type": "address"
        },
        {
          "indexed": true,
          "internalType": "address",
          "name": "to",
          "type": "address"
        },
        {
          "indexed": false,
          "internalType": "uint256",
          "name": "amount",
          "type": "uint256"
        }
      ],
      "name": "RwETHTransfer",
      "type": "event"
    },
    {
      "anonymous": false,
      "inputs": [
        {
          "indexed": true,
          "internalType": "address",
          "name": "from",
          "type": "address"
        },
        {
          "indexed": true,
          "internalType": "address",
          "name": "to",
          "type": "address"
        },
        {
          "indexed": true,
          "internalType": "address",
          "name": "token",
          "type": "address"
        },
        {
          "indexed": false,
          "internalType": "uint256",
          "name": "amount",
          "type": "uint256"
        }
      ],
      "name": "RwTokenTransfer",
      "type": "event"
    },
    {
      "inputs": [],
      "name": "MAX_LOCKS",
      "outputs": [
        {
          "internalType": "uint256",
          "name": "",
          "type": "uint256"
        }
      ],
      "stateMutability": "view",
      "type": "function"
    },
    {
      "inputs": [],
      "name": "areRegistrationsOpen",
      "outputs": [
        {
          "internalType": "bool",
          "name": "",
          "type": "bool"
        }
      ],
      "stateMutability": "view",
      "type": "function"
    },
    {
      "inputs": [
        {
          "internalType": "address[]",
          "name": "hackerAddresses",
          "type": "address[]"
        },
        {
          "internalType": "string[]",
          "name": "names",
          "type": "string[]"
        },
        {
          "internalType": "string[]",
          "name": "emails",
          "type": "string[]"
        },
        {
          "internalType": "uint256[]",
          "name": "numbers",
          "type": "uint256[]"
        },
        {
          "internalType": "address[]",
          "name": "lockAddresses",
          "type": "address[]"
        }
      ],
      "name": "batchRegisterHackers",
      "outputs": [],
      "stateMutability": "nonpayable",
      "type": "function"
    },
    {
      "inputs": [
        {
          "internalType": "string",
          "name": "_name",
          "type": "string"
        },
        {
          "internalType": "string",
          "name": "_email",
          "type": "string"
        },
        {
          "internalType": "uint256",
          "name": "_number",
          "type": "uint256"
        }
      ],
      "name": "editHackerData",
      "outputs": [],
      "stateMutability": "nonpayable",
      "type": "function"
    },
    {
      "inputs": [],
      "name": "eip712Domain",
      "outputs": [
        {
          "internalType": "bytes1",
          "name": "fields",
          "type": "bytes1"
        },
        {
          "internalType": "string",
          "name": "name",
          "type": "string"
        },
        {
          "internalType": "string",
          "name": "version",
          "type": "string"
        },
        {
          "internalType": "uint256",
          "name": "chainId",
          "type": "uint256"
        },
        {
          "internalType": "address",
          "name": "verifyingContract",
          "type": "address"
        },
        {
          "internalType": "bytes32",
          "name": "salt",
          "type": "bytes32"
        },
        {
          "internalType": "uint256[]",
          "name": "extensions",
          "type": "uint256[]"
        }
      ],
      "stateMutability": "view",
      "type": "function"
    },
    {
      "inputs": [],
      "name": "getAllHackers",
      "outputs": [
        {
          "components": [
            {
              "internalType": "address",
              "name": "hackerAddress",
              "type": "address"
            },
            {
              "internalType": "string",
              "name": "name",
              "type": "string"
            },
            {
              "internalType": "bytes32",
              "name": "email",
              "type": "bytes32"
            },
            {
              "internalType": "bytes32",
              "name": "number",
              "type": "bytes32"
            },
            {
              "internalType": "address",
              "name": "class",
              "type": "address"
            },
            {
              "internalType": "bool",
              "name": "initialized",
              "type": "bool"
            }
          ],
          "internalType": "struct HackerData[]",
          "name": "",
          "type": "tuple[]"
        }
      ],
      "stateMutability": "view",
      "type": "function"
    },
    {
      "inputs": [],
      "name": "getAreRegistrationsOpen",
      "outputs": [
        {
          "internalType": "bool",
          "name": "",
          "type": "bool"
        }
      ],
      "stateMutability": "view",
      "type": "function"
    },
    {
      "inputs": [
        {
          "internalType": "address",
          "name": "userAddress",
          "type": "address"
        }
      ],
      "name": "getHackerDataByAddress",
      "outputs": [
        {
          "components": [
            {
              "internalType": "address",
              "name": "hackerAddress",
              "type": "address"
            },
            {
              "internalType": "string",
              "name": "name",
              "type": "string"
            },
            {
              "internalType": "bytes32",
              "name": "email",
              "type": "bytes32"
            },
            {
              "internalType": "bytes32",
              "name": "number",
              "type": "bytes32"
            },
            {
              "internalType": "address",
              "name": "class",
              "type": "address"
            },
            {
              "internalType": "bool",
              "name": "initialized",
              "type": "bool"
            }
          ],
          "internalType": "struct HackerData",
          "name": "user",
          "type": "tuple"
        }
      ],
      "stateMutability": "view",
      "type": "function"
    },
    {
      "inputs": [
        {
          "internalType": "address",
          "name": "_hackerAddress",
          "type": "address"
        }
      ],
      "name": "getHackerNonce",
      "outputs": [
        {
          "internalType": "uint256",
          "name": "",
          "type": "uint256"
        }
      ],
      "stateMutability": "view",
      "type": "function"
    },
    {
      "inputs": [
        {
          "internalType": "string",
          "name": "_email",
          "type": "string"
        }
      ],
      "name": "getIsEmailRegistered",
      "outputs": [
        {
          "internalType": "bool",
          "name": "",
          "type": "bool"
        }
      ],
      "stateMutability": "view",
      "type": "function"
    },
    {
      "inputs": [
        {
          "internalType": "address",
          "name": "_hackerAddress",
          "type": "address"
        }
      ],
      "name": "getIsHackerInitialized",
      "outputs": [
        {
          "internalType": "bool",
          "name": "",
          "type": "bool"
        }
      ],
      "stateMutability": "view",
      "type": "function"
    },
    {
      "inputs": [
        {
          "internalType": "uint256",
          "name": "_number",
          "type": "uint256"
        }
      ],
      "name": "getIsNumberRegistered",
      "outputs": [
        {
          "internalType": "bool",
          "name": "",
          "type": "bool"
        }
      ],
      "stateMutability": "view",
      "type": "function"
    },
    {
      "inputs": [
        {
          "internalType": "address",
          "name": "_address",
          "type": "address"
        }
      ],
      "name": "getIsWhitelisted",
      "outputs": [
        {
          "internalType": "bool",
          "name": "",
          "type": "bool"
        }
      ],
      "stateMutability": "view",
      "type": "function"
    },
    {
      "inputs": [],
      "name": "getSalt",
      "outputs": [
        {
          "internalType": "bytes32",
          "name": "",
          "type": "bytes32"
        }
      ],
      "stateMutability": "view",
      "type": "function"
    },
    {
      "inputs": [
        {
          "internalType": "bytes",
          "name": "_signature",
          "type": "bytes"
        }
      ],
      "name": "initializeHackerProfile",
      "outputs": [],
      "stateMutability": "nonpayable",
      "type": "function"
    },
    {
      "inputs": [],
      "name": "owner",
      "outputs": [
        {
          "internalType": "address",
          "name": "",
          "type": "address"
        }
      ],
      "stateMutability": "view",
      "type": "function"
    },
    {
      "inputs": [
        {
          "internalType": "address",
          "name": "_hackerAddress",
          "type": "address"
        },
        {
          "internalType": "string",
          "name": "_name",
          "type": "string"
        },
        {
          "internalType": "string",
          "name": "_email",
          "type": "string"
        },
        {
          "internalType": "uint256",
          "name": "_number",
          "type": "uint256"
        },
        {
          "internalType": "address",
          "name": "_lockAddress",
          "type": "address"
        }
      ],
      "name": "registerHacker",
      "outputs": [],
      "stateMutability": "nonpayable",
      "type": "function"
    },
    {
      "inputs": [],
      "name": "renounceOwnership",
      "outputs": [],
      "stateMutability": "nonpayable",
      "type": "function"
    },
    {
      "inputs": [
        {
          "internalType": "address payable",
          "name": "_to",
          "type": "address"
        },
        {
          "internalType": "uint256",
          "name": "_amount",
          "type": "uint256"
        }
      ],
      "name": "sendEther",
      "outputs": [],
      "stateMutability": "nonpayable",
      "type": "function"
    },
    {
      "inputs": [
        {
          "internalType": "address",
          "name": "_address",
          "type": "address"
        },
        {
          "internalType": "bool",
          "name": "_isWhitelisted",
          "type": "bool"
        }
      ],
      "name": "setIsWhitelisted",
      "outputs": [],
      "stateMutability": "nonpayable",
      "type": "function"
    },
    {
      "inputs": [
        {
          "internalType": "bool",
          "name": "_areRegistrationsOpen",
          "type": "bool"
        }
      ],
      "name": "setRegistrationsStatus",
      "outputs": [],
      "stateMutability": "nonpayable",
      "type": "function"
    },
    {
      "inputs": [
        {
          "internalType": "bytes32",
          "name": "_salt",
          "type": "bytes32"
        }
      ],
      "name": "setSalt",
      "outputs": [],
      "stateMutability": "nonpayable",
      "type": "function"
    },
    {
      "inputs": [
        {
          "internalType": "contract IERC20",
          "name": "_token",
          "type": "address"
        },
        {
          "internalType": "address",
          "name": "_to",
          "type": "address"
        },
        {
          "internalType": "uint256",
          "name": "_amount",
          "type": "uint256"
        }
      ],
      "name": "transferERC20",
      "outputs": [],
      "stateMutability": "nonpayable",
      "type": "function"
    },
    {
      "inputs": [
        {
          "internalType": "contract IERC721",
          "name": "_token",
          "type": "address"
        },
        {
          "internalType": "address",
          "name": "_to",
          "type": "address"
        },
        {
          "internalType": "uint256",
          "name": "_tokenId",
          "type": "uint256"
        }
      ],
      "name": "transferERC721",
      "outputs": [],
      "stateMutability": "nonpayable",
      "type": "function"
    },
    {
      "inputs": [
        {
          "internalType": "address",
          "name": "newOwner",
          "type": "address"
        }
      ],
      "name": "transferOwnership",
      "outputs": [],
      "stateMutability": "nonpayable",
      "type": "function"
    },
    {
      "stateMutability": "payable",
      "type": "receive"
    }
  ],
  "transactionHash": "0x3c4b00b1322284ef18c87ccfac72a0fa134c4ee4f384848f5dd96ca39e532b77",
  "args": [
    "0x7c92af12a35ac62ec90ca00d384778d91557ed1d95b73a05a77d66c5b0a1f31e"
  ],
  "numDeployments": 1,
  "solcInputHash": "783b5fba13e5ef9ed3c384e69ab5c13d",
  "bytecode": "0x6101606040526006805460ff191690553480156200001c57600080fd5b5060405162002a8838038062002a888339810160408190526200003f9162000248565b604080518082018252601281527122aa24293bb0b73230a430b1b5b0ba3437b760711b602080830191909152825180840190935260018352603160f81b90830152903380620000a957604051631e4fbdf760e01b8152600060048201526024015b60405180910390fd5b620000b4816200017c565b5060018055620000c6826002620001cc565b61012052620000d7816003620001cc565b61014052815160208084019190912060e052815190820120610100524660a0526200016560e05161010051604080517f8b73c3c69bb8fe3d512ecc4cf759cc79239f7b179b0ffacaa9a75d522b39400f60208201529081019290925260608201524660808201523060a082015260009060c00160405160208183030381529060405280519060200120905090565b60805250503060c052600555600160045562000448565b600080546001600160a01b038381166001600160a01b0319831681178455604051919092169283917f8be0079c531659141344cd1fd0a4f28419497f9722a3daafe3b4186f6b6457e09190a35050565b6000602083511015620001ec57620001e48362000205565b9050620001ff565b81620001f9848262000307565b5060ff90505b92915050565b600080829050601f8151111562000233578260405163305a27a960e01b8152600401620000a09190620003d3565b8051620002408262000423565b179392505050565b6000602082840312156200025b57600080fd5b5051919050565b634e487b7160e01b600052604160045260246000fd5b600181811c908216806200028d57607f821691505b602082108103620002ae57634e487b7160e01b600052602260045260246000fd5b50919050565b601f8211156200030257600081815260208120601f850160051c81016020861015620002dd5750805b601f850160051c820191505b81811015620002fe57828155600101620002e9565b5050505b505050565b81516001600160401b0381111562000323576200032362000262565b6200033b8162000334845462000278565b84620002b4565b602080601f8311600181146200037357600084156200035a5750858301515b600019600386901b1c1916600185901b178555620002fe565b600085815260208120601f198616915b82811015620003a45788860151825594840194600190910190840162000383565b5085821015620003c35787850151600019600388901b60f8161c191681555b5050505050600190811b01905550565b600060208083528351808285015260005b818110156200040257858101830151858201604001528201620003e4565b506000604082860101526040601f19601f8301168501019250505092915050565b80516020808301519190811015620002ae5760001960209190910360031b1b16919050565b60805160a05160c05160e0516101005161012051610140516125e5620004a36000396000611831015260006117ff0152600061193101526000611909015260006118640152600061188e015260006118b801526125e56000f3fe6080604052600436106101695760003560e01c8063715018a6116100d1578063a24237d51161008a578063c74c91fb11610064578063c74c91fb14610468578063d322934314610488578063f2fde38b1461049d578063ff408543146104bd57600080fd5b8063a24237d5146103fb578063bb29ccc61461041b578063c1756a2c1461044857600080fd5b8063715018a61461031d57806384b0196e146103325780638da5cb5b1461035a578063938f296c1461038257806396a24484146103bb5780639db5dbe4146103db57600080fd5b80631e9f45a5116101235780631e9f45a5146102455780631fa4dc52146102655780633de2c4831461028f57806351c732b0146102c5578063611ef44f146102e557806369254d401461030557600080fd5b8062a170c914610175578063031a66b61461019757806309ec923a146101c257806309fdf02e146101e257806313a9589c146102025780631aca63761461022557600080fd5b3661017057005b600080fd5b34801561018157600080fd5b50610195610190366004611c7b565b610500565b005b3480156101a357600080fd5b506101ac61054f565b6040516101b99190611d50565b60405180910390f35b3480156101ce57600080fd5b506101956101dd366004611dc7565b6106c8565b3480156101ee57600080fd5b506101956101fd366004611ebf565b6106fb565b34801561020e57600080fd5b50610217610919565b6040519081526020016101b9565b34801561023157600080fd5b50610195610240366004611f2c565b61094c565b34801561025157600080fd5b50610195610260366004611f6d565b610a4a565b34801561027157600080fd5b5060065461027f9060ff1681565b60405190151581526020016101b9565b34801561029b57600080fd5b506102176102aa366004611fbe565b6001600160a01b031660009081526007602052604090205490565b3480156102d157600080fd5b506101956102e0366004611fdb565b610c10565b3480156102f157600080fd5b50610195610300366004612070565b611062565b34801561031157600080fd5b5060065460ff1661027f565b34801561032957600080fd5b5061019561106f565b34801561033e57600080fd5b50610347611083565b6040516101b99796959493929190612089565b34801561036657600080fd5b506000546040516001600160a01b0390911681526020016101b9565b34801561038e57600080fd5b5061027f61039d366004611fbe565b6001600160a01b03166000908152600c602052604090205460ff1690565b3480156103c757600080fd5b5061027f6103d6366004612070565b6110c9565b3480156103e757600080fd5b506101956103f6366004611f2c565b611102565b34801561040757600080fd5b5061027f61041636600461211f565b611221565b34801561042757600080fd5b5061043b610436366004611fbe565b611251565b6040516101b99190612154565b34801561045457600080fd5b50610195610463366004612167565b611382565b34801561047457600080fd5b50610195610483366004612306565b611496565b34801561049457600080fd5b50610217600681565b3480156104a957600080fd5b506101956104b8366004611fbe565b61169a565b3480156104c957600080fd5b5061027f6104d8366004611fbe565b6001600160a01b0316600090815260096020526040902060040154600160a01b900460ff1690565b6105086116d8565b6006805460ff19168215159081179091556040519081527f1a30f630d0950ddfc90d43ec4e405fd012ddb4ba669dd2bd5e95439631c4221f9060200160405180910390a150565b336000908152600c602052604090205460609060ff168061058357604051631a27eac360e11b815260040160405180910390fd5b600d805480602002602001604051908101604052809291908181526020016000905b828210156106be5760008481526020908190206040805160c081019091526005850290910180546001600160a01b0316825260018101805492939192918401916105ee906123d8565b80601f016020809104026020016040519081016040528092919081815260200182805461061a906123d8565b80156106675780601f1061063c57610100808354040283529160200191610667565b820191906000526020600020905b81548152906001019060200180831161064a57829003601f168201915b50505091835250506002820154602080830191909152600383015460408301526004909201546001600160a01b0381166060830152600160a01b900460ff16151560809091015290825260019290920191016105a5565b5050505091505090565b6106d06116d8565b6001600160a01b03919091166000908152600c60205260409020805460ff1916911515919091179055565b3360009081526009602052604090206004810154600160a01b900460ff1661075f5760405162461bcd60e51b8152602060048201526012602482015271155cd95c939bdd125b9a5d1a585b1a5e995960721b60448201526064015b60405180910390fd5b600081600301549050600061077684600554611705565b9050808214610813576000818152600b60205260409020546001600160a01b0316156107e45760405162461bcd60e51b815260206004820152601e60248201527f55736572416c7265616479526567697374657265645769746850686f6e6500006044820152606401610756565b6000818152600b602052604080822080546001600160a01b031990811633179091558483529120805490911690555b600083600201549050600061082a8760055461173c565b90508082146108c7576000818152600a60205260409020546001600160a01b0316156108985760405162461bcd60e51b815260206004820152601e60248201527f55736572416c72656164795265676973746572656457697468456d61696c00006044820152606401610756565b6000818152600a602052604080822080546001600160a01b031990811633179091558483529120805490911690555b600185016108d5898261245d565b50600285018190556003850183905560405133907f899e426a1145f5a7442566cb6f469b4a55da6844560a30d29ef1ed98e4387cac90600090a25050505050505050565b600080546001600160a01b0316331461094557604051631a27eac360e11b815260040160405180910390fd5b5060055490565b33600090815260096020526040902060040154600160a01b900460ff1661098657604051630a0e3b7560e21b815260040160405180910390fd5b604051632142170760e11b81523360048201526001600160a01b038381166024830152604482018390528416906342842e0e90606401600060405180830381600087803b1580156109d657600080fd5b505af11580156109ea573d6000803e3d6000fd5b50505050826001600160a01b0316826001600160a01b0316336001600160a01b03167fa7418bd3094e0f5ece1f8051255ef65d992cefcb0631709d897d8a859442f92984604051610a3d91815260200190565b60405180910390a4505050565b3360009081526009602052604090206004810154600160a01b900460ff1615610aaa5760405162461bcd60e51b8152602060048201526012602482015271105b1c9958591e525b9a5d1a585b1a5e995960721b6044820152606401610756565b3360008181526007602090815260408083205481517f8436e0b04c93157f90a55acb9c14dc3f4dfb2f28f2f94c63c091f411286818a19381019390935290820193909352606081018390526080016040516020818303038152906040528051906020012090506000610b1b82611751565b90506000610b29828761177e565b90506001600160a01b0381163314610b755760405162461bcd60e51b815260206004820152600f60248201526e2737ba20b2323932b9b9a7bbb732b960891b6044820152606401610756565b84546001600160a01b031990811633908117875560028701546000908152600a60209081526040808320805486168517905560038a01548352600b8252808320805490951684179094558282526007905282812087905560048801805460ff60a01b1916600160a01b179055915190917f03a11e363798d177d3b70e778154773018cf4669a4ecf1fdbacd173248bb464e91a2505050505050565b60065460ff16610c585760405162461bcd60e51b8152602060048201526013602482015272149959da5cdd1c985d1a5bdb9cd0db1bdcd959606a1b6044820152606401610756565b6001600160a01b038581166000908152600960205260409020541615610cb85760405162461bcd60e51b8152602060048201526015602482015274155cd95c905b1c9958591e549959da5cdd195c9959605a1b6044820152606401610756565b6000610cc683600554611705565b6000818152600b60205260409020549091506001600160a01b031615610d2e5760405162461bcd60e51b815260206004820152601e60248201527f55736572416c7265616479526567697374657265645769746850686f6e6500006044820152606401610756565b6000610d3c8560055461173c565b6000818152600a60205260409020549091506001600160a01b031615610da45760405162461bcd60e51b815260206004820152601e60248201527f55736572416c72656164795265676973746572656457697468456d61696c00006044820152606401610756565b6040805160c0810182526001600160a01b03898116825260208083018a8152838501869052606084018790528783166080850152600060a085018190528781526008909252939020825181546001600160a01b03191692169190911781559151909182916001820190610e17908261245d565b5060408281015160028301556060830151600383015560808301516004909201805460a0909401511515600160a01b026001600160a81b03199094166001600160a01b0393841617939093179092558981166000908152600960209081529290208351815492166001600160a01b031992909216919091178155908201518291906001820190610ea7908261245d565b5060408281015160028301556060830151600383015560808301516004909201805460a0909401511515600160a01b026001600160a81b03199094166001600160a01b0393841617939093179092556000848152600a602090815283822080548d85166001600160a01b03199182168117909255888452600b8352948320805486169091179055600d80546001810182559252845160059092027fd7b6990105719101dabeb77144f2a3385c8033acd3af97e9423a695e81ad1eb581018054939094169290941691909117825583015183927fd7b6990105719101dabeb77144f2a3385c8033acd3af97e9423a695e81ad1eb60190610fa6908261245d565b5060408281015160028301556060830151600383015560808301516004928301805460a0909501511515600160a01b026001600160a81b03199095166001600160a01b0392831617949094179093558154928b16600090815260076020529081208390556110138361251d565b90915550506040516001600160a01b0385811682528916907f2ee9bb10985d2baeb1f5ee83dc4b9a6a8bba35763f716ef99bb4b7ea21011d5c9060200160405180910390a25050505050505050565b61106a6116d8565b600555565b6110776116d8565b61108160006117a8565b565b6000606080600080600060606110976117f8565b61109f61182a565b60408051600080825260208201909252600f60f81b9b939a50919850469750309650945092509050565b6000806110d883600554611705565b60008181526008602052604090206001018054919250906110f8906123d8565b1515949350505050565b33600090815260096020526040902060040154600160a01b900460ff1661113c57604051630a0e3b7560e21b815260040160405180910390fd5b6040516323b872dd60e01b81523360048201526001600160a01b038381166024830152604482018390528416906323b872dd906064016020604051808303816000875af1158015611191573d6000803e3d6000fd5b505050506040513d601f19601f820116820180604052508101906111b59190612544565b6111d2576040516312171d8360e31b815260040160405180910390fd5b826001600160a01b0316826001600160a01b0316336001600160a01b03167fb7a2adcaba30b7e13cf165014f76f31abfa2b823191171dabef01298a02f5b1484604051610a3d91815260200190565b6000806112308360055461173c565b6000908152600a60205260409020546001600160a01b031615159392505050565b6040805160c080820183526000808352606060208085018290528486018390529084018290526080840182905260a084018290526001600160a01b038681168352600982529185902085519384019095528454909116825260018401805493949293918401916112c0906123d8565b80601f01602080910402602001604051908101604052809291908181526020018280546112ec906123d8565b80156113395780601f1061130e57610100808354040283529160200191611339565b820191906000526020600020905b81548152906001019060200180831161131c57829003601f168201915b505050918352505060028201546020820152600382015460408201526004909101546001600160a01b0381166060830152600160a01b900460ff16151560809091015292915050565b33600090815260096020526040902060040154600160a01b900460ff166113bc57604051630a0e3b7560e21b815260040160405180910390fd5b804710156113dd57604051631e9acf1760e31b815260040160405180910390fd5b6000826001600160a01b03168260405160006040518083038185875af1925050503d806000811461142a576040519150601f19603f3d011682016040523d82523d6000602084013e61142f565b606091505b5050905080611451576040516312171d8360e31b815260040160405180910390fd5b6040518281526001600160a01b0384169033907f0ed2f25f2e8fac60d5a381e78fd218e041217d544665747acac4cb9ab8e9c6179060200160405180910390a3505050565b61149e6116d8565b60065460ff166114f05760405162461bcd60e51b815260206004820152601860248201527f526567697374726174696f6e732061726520636c6f73656400000000000000006044820152606401610756565b83518551148015611502575082518451145b801561150f575081518351145b801561151c575080518251145b6115685760405162461bcd60e51b815260206004820152601860248201527f4172726179206c656e67746873206d757374206d6174636800000000000000006044820152606401610756565b60005b8551811015611692576115fe86828151811061158957611589612561565b60200260200101518683815181106115a3576115a3612561565b60200260200101518684815181106115bd576115bd612561565b60200260200101518685815181106115d7576115d7612561565b60200260200101518686815181106115f1576115f1612561565b6020026020010151610c10565b85818151811061161057611610612561565b60200260200101516001600160a01b03167f2ee9bb10985d2baeb1f5ee83dc4b9a6a8bba35763f716ef99bb4b7ea21011d5c83838151811061165457611654612561565b602002602001015160405161167891906001600160a01b0391909116815260200190565b60405180910390a28061168a8161251d565b91505061156b565b505050505050565b6116a26116d8565b6001600160a01b0381166116cc57604051631e4fbdf760e01b815260006004820152602401610756565b6116d5816117a8565b50565b6000546001600160a01b031633146110815760405163118cdaa760e01b8152336004820152602401610756565b60408051602081018490529081018290526000906060015b6040516020818303038152906040528051906020012090505b92915050565b6000828260405160200161171d929190612577565b600061173661175e611857565b8360405161190160f01b8152600281019290925260228201526042902090565b60008060008061178e8686611982565b92509250925061179e82826119cf565b5090949350505050565b600080546001600160a01b038381166001600160a01b0319831681178455604051919092169283917f8be0079c531659141344cd1fd0a4f28419497f9722a3daafe3b4186f6b6457e09190a35050565b60606118257f00000000000000000000000000000000000000000000000000000000000000006002611a8c565b905090565b60606118257f00000000000000000000000000000000000000000000000000000000000000006003611a8c565b6000306001600160a01b037f0000000000000000000000000000000000000000000000000000000000000000161480156118b057507f000000000000000000000000000000000000000000000000000000000000000046145b156118da57507f000000000000000000000000000000000000000000000000000000000000000090565b611825604080517f8b73c3c69bb8fe3d512ecc4cf759cc79239f7b179b0ffacaa9a75d522b39400f60208201527f0000000000000000000000000000000000000000000000000000000000000000918101919091527f000000000000000000000000000000000000000000000000000000000000000060608201524660808201523060a082015260009060c00160405160208183030381529060405280519060200120905090565b600080600083516041036119bc5760208401516040850151606086015160001a6119ae88828585611b37565b9550955095505050506119c8565b50508151600091506002905b9250925092565b60008260038111156119e3576119e3612599565b036119ec575050565b6001826003811115611a0057611a00612599565b03611a1e5760405163f645eedf60e01b815260040160405180910390fd5b6002826003811115611a3257611a32612599565b03611a535760405163fce698f760e01b815260048101829052602401610756565b6003826003811115611a6757611a67612599565b03611a88576040516335e2f38360e21b815260048101829052602401610756565b5050565b606060ff8314611aa657611a9f83611c06565b9050611736565b818054611ab2906123d8565b80601f0160208091040260200160405190810160405280929190818152602001828054611ade906123d8565b8015611b2b5780601f10611b0057610100808354040283529160200191611b2b565b820191906000526020600020905b815481529060010190602001808311611b0e57829003601f168201915b50505050509050611736565b600080807f7fffffffffffffffffffffffffffffff5d576e7357a4501ddfe92f46681b20a0841115611b725750600091506003905082611bfc565b604080516000808252602082018084528a905260ff891692820192909252606081018790526080810186905260019060a0016020604051602081039080840390855afa158015611bc6573d6000803e3d6000fd5b5050604051601f1901519150506001600160a01b038116611bf257506000925060019150829050611bfc565b9250600091508190505b9450945094915050565b60606000611c1383611c45565b604080516020808252818301909252919250600091906020820181803683375050509182525060208101929092525090565b600060ff8216601f81111561173657604051632cd44ac360e21b815260040160405180910390fd5b80151581146116d557600080fd5b600060208284031215611c8d57600080fd5b8135611c9881611c6d565b9392505050565b60005b83811015611cba578181015183820152602001611ca2565b50506000910152565b60008151808452611cdb816020860160208601611c9f565b601f01601f19169290920160200192915050565b600060018060a01b03808351168452602083015160c06020860152611d1760c0860182611cc3565b9050604084015160408601526060840151606086015281608085015116608086015260a0840151151560a0860152809250505092915050565b6000602080830181845280855180835260408601915060408160051b870101925083870160005b82811015611da557603f19888603018452611d93858351611cef565b94509285019290850190600101611d77565b5092979650505050505050565b6001600160a01b03811681146116d557600080fd5b60008060408385031215611dda57600080fd5b8235611de581611db2565b91506020830135611df581611c6d565b809150509250929050565b634e487b7160e01b600052604160045260246000fd5b604051601f8201601f1916810167ffffffffffffffff81118282101715611e3f57611e3f611e00565b604052919050565b600067ffffffffffffffff831115611e6157611e61611e00565b611e74601f8401601f1916602001611e16565b9050828152838383011115611e8857600080fd5b828260208301376000602084830101529392505050565b600082601f830112611eb057600080fd5b611c9883833560208501611e47565b600080600060608486031215611ed457600080fd5b833567ffffffffffffffff80821115611eec57600080fd5b611ef887838801611e9f565b94506020860135915080821115611f0e57600080fd5b50611f1b86828701611e9f565b925050604084013590509250925092565b600080600060608486031215611f4157600080fd5b8335611f4c81611db2565b92506020840135611f5c81611db2565b929592945050506040919091013590565b600060208284031215611f7f57600080fd5b813567ffffffffffffffff811115611f9657600080fd5b8201601f81018413611fa757600080fd5b611fb684823560208401611e47565b949350505050565b600060208284031215611fd057600080fd5b8135611c9881611db2565b600080600080600060a08688031215611ff357600080fd5b8535611ffe81611db2565b9450602086013567ffffffffffffffff8082111561201b57600080fd5b61202789838a01611e9f565b9550604088013591508082111561203d57600080fd5b5061204a88828901611e9f565b93505060608601359150608086013561206281611db2565b809150509295509295909350565b60006020828403121561208257600080fd5b5035919050565b60ff60f81b881681526000602060e0818401526120a960e084018a611cc3565b83810360408501526120bb818a611cc3565b606085018990526001600160a01b038816608086015260a0850187905284810360c0860152855180825283870192509083019060005b8181101561210d578351835292840192918401916001016120f1565b50909c9b505050505050505050505050565b60006020828403121561213157600080fd5b813567ffffffffffffffff81111561214857600080fd5b611fb684828501611e9f565b602081526000611c986020830184611cef565b6000806040838503121561217a57600080fd5b823561218581611db2565b946020939093013593505050565b600067ffffffffffffffff8211156121ad576121ad611e00565b5060051b60200190565b600082601f8301126121c857600080fd5b813560206121dd6121d883612193565b611e16565b82815260059290921b840181019181810190868411156121fc57600080fd5b8286015b8481101561222057803561221381611db2565b8352918301918301612200565b509695505050505050565b600082601f83011261223c57600080fd5b8135602061224c6121d883612193565b82815260059290921b8401810191818101908684111561226b57600080fd5b8286015b8481101561222057803567ffffffffffffffff81111561228f5760008081fd5b61229d8986838b0101611e9f565b84525091830191830161226f565b600082601f8301126122bc57600080fd5b813560206122cc6121d883612193565b82815260059290921b840181019181810190868411156122eb57600080fd5b8286015b8481101561222057803583529183019183016122ef565b600080600080600060a0868803121561231e57600080fd5b853567ffffffffffffffff8082111561233657600080fd5b61234289838a016121b7565b9650602088013591508082111561235857600080fd5b61236489838a0161222b565b9550604088013591508082111561237a57600080fd5b61238689838a0161222b565b9450606088013591508082111561239c57600080fd5b6123a889838a016122ab565b935060808801359150808211156123be57600080fd5b506123cb888289016121b7565b9150509295509295909350565b600181811c908216806123ec57607f821691505b60208210810361240c57634e487b7160e01b600052602260045260246000fd5b50919050565b601f82111561245857600081815260208120601f850160051c810160208610156124395750805b601f850160051c820191505b8181101561169257828155600101612445565b505050565b815167ffffffffffffffff81111561247757612477611e00565b61248b8161248584546123d8565b84612412565b602080601f8311600181146124c057600084156124a85750858301515b600019600386901b1c1916600185901b178555611692565b600085815260208120601f198616915b828110156124ef578886015182559484019460019091019084016124d0565b508582101561250d5787850151600019600388901b60f8161c191681555b5050505050600190811b01905550565b60006001820161253d57634e487b7160e01b600052601160045260246000fd5b5060010190565b60006020828403121561255657600080fd5b8151611c9881611c6d565b634e487b7160e01b600052603260045260246000fd5b60008351612589818460208801611c9f565b9190910191825250602001919050565b634e487b7160e01b600052602160045260246000fdfea2646970667358221220a961d5a69d79fb2c3ab3503e0f3eed5d40f88e6b4b65592da4fae0d618e9db5c64736f6c63430008140033",
  "devdoc": {
    "author": "Danny Thomx ",
    "errors": {
      "ECDSAInvalidSignature()": [
        {
          "details": "The signature derives the `address(0)`."
        }
      ],
      "ECDSAInvalidSignatureLength(uint256)": [
        {
          "details": "The signature has an invalid length."
        }
      ],
      "ECDSAInvalidSignatureS(bytes32)": [
        {
          "details": "The signature has an S value that is in the upper half order."
        }
      ],
      "OwnableInvalidOwner(address)": [
        {
          "details": "The owner is not a valid owner account. (eg. `address(0)`)"
        }
      ],
      "OwnableUnauthorizedAccount(address)": [
        {
          "details": "The caller account is not authorized to perform an operation."
        }
      ],
      "ReentrancyGuardReentrantCall()": [
        {
          "details": "Unauthorized reentrant call."
        }
      ]
    },
    "events": {
      "EIP712DomainChanged()": {
        "details": "MAY be emitted to signal that the domain could have changed."
      }
    },
    "kind": "dev",
    "methods": {
      "eip712Domain()": {
        "details": "See {IERC-5267}."
      },
      "getIsEmailRegistered(string)": {
        "params": {
          "_email": "The email to check."
        },
        "returns": {
          "_0": "True if the email has been used to register a hacker, false otherwise."
        }
      },
      "getIsHackerInitialized(address)": {
        "params": {
          "_hackerAddress": "The address of the hacker."
        },
        "returns": {
          "_0": "True if the hacker's profile is initialized, false otherwise."
        }
      },
      "getIsNumberRegistered(uint256)": {
        "params": {
          "_number": "The phone number to check."
        },
        "returns": {
          "_0": "True if the hacker is registered, false otherwise."
        }
      },
      "owner()": {
        "details": "Returns the address of the current owner."
      },
      "renounceOwnership()": {
        "details": "Leaves the contract without owner. It will not be possible to call `onlyOwner` functions. Can only be called by the current owner. NOTE: Renouncing ownership will leave the contract without an owner, thereby disabling any functionality that is only available to the owner."
      },
      "sendEther(address,uint256)": {
        "params": {
          "_amount": "The amount of Ether to send.",
          "_to": "The address to send Ether to."
        }
      },
      "transferERC20(address,address,uint256)": {
        "params": {
          "_amount": "The amount of tokens to transfer.",
          "_to": "The address to transfer tokens to.",
          "_token": "The ERC20 token contract."
        }
      },
      "transferERC721(address,address,uint256)": {
        "params": {
          "_to": "The address to transfer tokens to.",
          "_token": "The ERC721 token contract.",
          "_tokenId": "The ID of the token to transfer."
        }
      },
      "transferOwnership(address)": {
        "details": "Transfers ownership of the contract to a new account (`newOwner`). Can only be called by the current owner."
      }
    },
    "title": "ETHRwanda Hackathon Registry",
    "version": 1
  },
  "userdoc": {
    "kind": "user",
    "methods": {
      "getIsEmailRegistered(string)": {
        "notice": "Checks if email has been used to register a hacker."
      },
      "getIsHackerInitialized(address)": {
        "notice": "Checks if a hacker's profile is initialized."
      },
      "getIsNumberRegistered(uint256)": {
        "notice": "Checks if a hacker is registered by phone number."
      },
      "sendEther(address,uint256)": {
        "notice": "Sends Ether to a specified address."
      },
      "transferERC20(address,address,uint256)": {
        "notice": "Transfers ERC20 tokens to a specified address."
      },
      "transferERC721(address,address,uint256)": {
        "notice": "Transfers ERC721 tokens to a specified address."
      }
    },
    "notice": "Manages the registration and data of hackers participating in the ETH Rwanda Hackathon.",
    "version": 1
  },
  "storageLayout": {
    "storage": [
      {
        "astId": 8,
        "contract": "contracts/HackerOnboard.sol:ETHRwandaHackathonOnboard",
        "label": "_owner",
        "offset": 0,
        "slot": "0",
        "type": "t_address"
      },
      {
        "astId": 408,
        "contract": "contracts/HackerOnboard.sol:ETHRwandaHackathonOnboard",
        "label": "_status",
        "offset": 0,
        "slot": "1",
        "type": "t_uint256"
      },
      {
        "astId": 1433,
        "contract": "contracts/HackerOnboard.sol:ETHRwandaHackathonOnboard",
        "label": "_nameFallback",
        "offset": 0,
        "slot": "2",
        "type": "t_string_storage"
      },
      {
        "astId": 1435,
        "contract": "contracts/HackerOnboard.sol:ETHRwandaHackathonOnboard",
        "label": "_versionFallback",
        "offset": 0,
        "slot": "3",
        "type": "t_string_storage"
      },
      {
        "astId": 2935,
        "contract": "contracts/HackerOnboard.sol:ETHRwandaHackathonOnboard",
        "label": "nonce",
        "offset": 0,
        "slot": "4",
        "type": "t_uint256"
      },
      {
        "astId": 2937,
        "contract": "contracts/HackerOnboard.sol:ETHRwandaHackathonOnboard",
        "label": "salt",
        "offset": 0,
        "slot": "5",
        "type": "t_bytes32"
      },
      {
        "astId": 2940,
        "contract": "contracts/HackerOnboard.sol:ETHRwandaHackathonOnboard",
        "label": "areRegistrationsOpen",
        "offset": 0,
        "slot": "6",
        "type": "t_bool"
      },
      {
        "astId": 2953,
        "contract": "contracts/HackerOnboard.sol:ETHRwandaHackathonOnboard",
        "label": "hackerNonceByAddress",
        "offset": 0,
        "slot": "7",
        "type": "t_mapping(t_address,t_uint256)"
      },
      {
        "astId": 2958,
        "contract": "contracts/HackerOnboard.sol:ETHRwandaHackathonOnboard",
        "label": "hackersByPhone",
        "offset": 0,
        "slot": "8",
        "type": "t_mapping(t_bytes32,t_struct(HackerData)2899_storage)"
      },
      {
        "astId": 2963,
        "contract": "contracts/HackerOnboard.sol:ETHRwandaHackathonOnboard",
        "label": "hackersByAddress",
        "offset": 0,
        "slot": "9",
        "type": "t_mapping(t_address,t_struct(HackerData)2899_storage)"
      },
      {
        "astId": 2967,
        "contract": "contracts/HackerOnboard.sol:ETHRwandaHackathonOnboard",
        "label": "hackerEmailHashes",
        "offset": 0,
        "slot": "10",
        "type": "t_mapping(t_bytes32,t_address)"
      },
      {
        "astId": 2971,
        "contract": "contracts/HackerOnboard.sol:ETHRwandaHackathonOnboard",
        "label": "hackerNumberHashes",
        "offset": 0,
        "slot": "11",
        "type": "t_mapping(t_bytes32,t_address)"
      },
      {
        "astId": 2975,
        "contract": "contracts/HackerOnboard.sol:ETHRwandaHackathonOnboard",
        "label": "whitelistedAddresses",
        "offset": 0,
        "slot": "12",
        "type": "t_mapping(t_address,t_bool)"
      },
      {
        "astId": 2979,
        "contract": "contracts/HackerOnboard.sol:ETHRwandaHackathonOnboard",
        "label": "users",
        "offset": 0,
        "slot": "13",
        "type": "t_array(t_struct(HackerData)2899_storage)dyn_storage"
      },
      {
        "astId": 2982,
        "contract": "contracts/HackerOnboard.sol:ETHRwandaHackathonOnboard",
        "label": "locks",
        "offset": 0,
        "slot": "14",
        "type": "t_array(t_address)dyn_storage"
      }
    ],
    "types": {
      "t_address": {
        "encoding": "inplace",
        "label": "address",
        "numberOfBytes": "20"
      },
      "t_array(t_address)dyn_storage": {
        "base": "t_address",
        "encoding": "dynamic_array",
        "label": "address[]",
        "numberOfBytes": "32"
      },
      "t_array(t_struct(HackerData)2899_storage)dyn_storage": {
        "base": "t_struct(HackerData)2899_storage",
        "encoding": "dynamic_array",
        "label": "struct HackerData[]",
        "numberOfBytes": "32"
      },
      "t_bool": {
        "encoding": "inplace",
        "label": "bool",
        "numberOfBytes": "1"
      },
      "t_bytes32": {
        "encoding": "inplace",
        "label": "bytes32",
        "numberOfBytes": "32"
      },
      "t_mapping(t_address,t_bool)": {
        "encoding": "mapping",
        "key": "t_address",
        "label": "mapping(address => bool)",
        "numberOfBytes": "32",
        "value": "t_bool"
      },
      "t_mapping(t_address,t_struct(HackerData)2899_storage)": {
        "encoding": "mapping",
        "key": "t_address",
        "label": "mapping(address => struct HackerData)",
        "numberOfBytes": "32",
        "value": "t_struct(HackerData)2899_storage"
      },
      "t_mapping(t_address,t_uint256)": {
        "encoding": "mapping",
        "key": "t_address",
        "label": "mapping(address => uint256)",
        "numberOfBytes": "32",
        "value": "t_uint256"
      },
      "t_mapping(t_bytes32,t_address)": {
        "encoding": "mapping",
        "key": "t_bytes32",
        "label": "mapping(bytes32 => address)",
        "numberOfBytes": "32",
        "value": "t_address"
      },
      "t_mapping(t_bytes32,t_struct(HackerData)2899_storage)": {
        "encoding": "mapping",
        "key": "t_bytes32",
        "label": "mapping(bytes32 => struct HackerData)",
        "numberOfBytes": "32",
        "value": "t_struct(HackerData)2899_storage"
      },
      "t_string_storage": {
        "encoding": "bytes",
        "label": "string",
        "numberOfBytes": "32"
      },
      "t_struct(HackerData)2899_storage": {
        "encoding": "inplace",
        "label": "struct HackerData",
        "members": [
          {
            "astId": 2888,
            "contract": "contracts/HackerOnboard.sol:ETHRwandaHackathonOnboard",
            "label": "hackerAddress",
            "offset": 0,
            "slot": "0",
            "type": "t_address"
          },
          {
            "astId": 2890,
            "contract": "contracts/HackerOnboard.sol:ETHRwandaHackathonOnboard",
            "label": "name",
            "offset": 0,
            "slot": "1",
            "type": "t_string_storage"
          },
          {
            "astId": 2892,
            "contract": "contracts/HackerOnboard.sol:ETHRwandaHackathonOnboard",
            "label": "email",
            "offset": 0,
            "slot": "2",
            "type": "t_bytes32"
          },
          {
            "astId": 2894,
            "contract": "contracts/HackerOnboard.sol:ETHRwandaHackathonOnboard",
            "label": "number",
            "offset": 0,
            "slot": "3",
            "type": "t_bytes32"
          },
          {
            "astId": 2896,
            "contract": "contracts/HackerOnboard.sol:ETHRwandaHackathonOnboard",
            "label": "class",
            "offset": 0,
            "slot": "4",
            "type": "t_address"
          },
          {
            "astId": 2898,
            "contract": "contracts/HackerOnboard.sol:ETHRwandaHackathonOnboard",
            "label": "initialized",
            "offset": 20,
            "slot": "4",
            "type": "t_bool"
          }
        ],
        "numberOfBytes": "160"
      },
      "t_uint256": {
        "encoding": "inplace",
        "label": "uint256",
        "numberOfBytes": "32"
      }
    }
  }
}